:020000040800F2
:10000000F8120020D5010008D9010008DB01000822
:10001000DD010008DF010008E10100080000000028
:10002000000000000000000000000000E3010008E4
:10003000E501000800000000E7010008E9010008F0
:10004000EB010008EB010008EB010008EB010008E0
:10005000EB010008EB010008EB010008EB010008D0
:10006000EB010008EB010008EB010008EB010008C0
:10007000EB010008EB010008EB010008EB010008B0
:10008000EB010008EB010008EB010008EB010008A0
:10009000EB010008EB010008EB010008EB01000890
:1000A000EB01000877280008EB010008EB010008CD
:1000B00029160008EB010008EB010008EB0100081D
:1000C000EB010008EB010008EB010008EB01000860
:1000D000EB010008BF090008390A0008EB0100081D
:1000E000EB010008EB010008EB01000800F002F84A
:1000F00000F05AF80AA090E8000C82448344AAF168
:100100000107DA4501D100F04FF8AFF2090EBAE865
:100110000F0013F0010F18BFFB1A43F0010318473B
:10012000D0550000F05500000A444FF0000C10F8C4
:10013000013B13F0070408BF10F8014B1D1108BF65
:1001400010F8015B641E05D010F8016B641E01F805
:10015000016BF9D113F0080F1EBF10F8014BAD1C55
:100160000C1B09D16D1E58BF01F801CBFAD505E073
:1001700014F8016B01F8016B6D1EF9D59142D6D3CD
:10018000704700000023002400250026103A28BFF5
:1001900078C1FBD8520728BF30C148BF0B607047F9
:1001A0001FB51FBD10B510BD03F022FB1146FFF7B0
:1001B000F7FF00F02BF803F040FB03B4FFF7F2FF6A
:1001C00003BC00F007FB000030BF72B662B680F3DC
:1001D0000888704708480047FEE7FEE7FEE7FEE7AD
:1001E000FEE7FEE7FEE7FEE7FEE7FEE70348044919
:1001F000044A054B70470000ED000008F80C002091
:10020000F8120020F80E0020F80E0020092000F05F
:1002100088FA482000F028F94FF4E131482000F036
:10022000FEFA4FF49641482000F054FB022000F003
:1002300063FA012000F060FA00F066FC002141F64C
:100240001F4001F0CFF800F06FFE002002F09CFE8E
:1002500000F0FEFE0C2374A20321192000F016FE0C
:100260000C2373A204211B2000F010FE4FF4FA703F
:1002700000F032F900BF01F0CBFB0028FBD100F009
:100280000DFC002002F080FE0C2367A20321192040
:1002900000F0FCFD0C2368A20421052000F0F6FD0F
:1002A0004FF4FA7000F018F9002002F06DFE01F032
:1002B000F3F807226449654801F0A8FD6248808987
:1002C00056283CD16049888804F078FB064660498E
:1002D00004F05EFA04465C4949885B4A128802EBE6
:1002E000820201EB420004F051FB0546214604F076
:1002F000E1F9584908605449498908B204F046FBBD
:100300000646554904F044FA04464F49098908B2A3
:1003100004F03CFB80464E4904F03AFA06464A494E
:10032000C98808B204F032FB0746314604F0C2F92E
:100330000546214604F0BEF94849086062E05620AF
:100340004149888142494348006804F07FFB0446E4
:1003500004F0E0FA642190FBF1F03B4908803C494D
:100360003C48006804F072FB044604F0D3FA6421B0
:1003700090FBF1F201FB12000A2190FBF1F03249EF
:10038000488033493348006804F060FB044604F0B9
:10039000C1FA0A2190FBF1F201FB12002A49888080
:1003A0002D492E48006804F051FB044604F0B2FACF
:1003B000642190FBF1F02449C88027492748006850
:1003C00004F044FB044604F0A5FA642190FBF1F22A
:1003D00001FB12000A2190FBF1F01B4908811E4924
:1003E0001E48006804F032FB044604F093FA0A2128
:1003F00090FBF1F201FB12001349488107221348D8
:1004000001F015FD1348006815490860114800689F
:100410001449086041F61F41632000F09BFF01E092
:1004200002F002FCFCE700004D505536303530003C
:10043000696E69742E2E2E00696E6974207375635F
:1004400063657373212121000C04002000700008F3
:1004500000002041A40300200000C8429C030020AB
:10046000A0030020B40300204FF0E021096921F02F
:1004700004014FF0E0221161C21700EB5272C2F387
:10048000C702234B1A701946097801EB4102C2EBEF
:10049000C1114FF6FF7202EAC1011E4A1180704776
:1004A00001461B4A12784A434FF0E0235A6100226A
:1004B0009A6101221A6100BF4FF0E022106900F03A
:1004C00001021AB100F48032002AF5D000224FF068
:1004D000E0231A619A61704701460E4A12884A4326
:1004E0004FF0E0235A6100229A6101221A6100BF95
:1004F0004FF0E022106900F001021AB100F48032DE
:10050000002AF5D000224FF0E0231A619A6170476B
:100510000000002002000020A34A0A400243A34B2F
:100520001A6070470146072323EA010212029F4B1B
:100530001B1D18684FF6FF0318409D4B18431043CE
:100540009A4B1B1D186070472DE9F04107468846FD
:1005500014461D462846FFF7E5FFC5F1040007FADB
:1005600000F60F20284100EA0800064306F00F06B7
:10057000E21704EBD2625211920002F1E022D2F8AB
:1005800000212146E31704EBD3635B11A4EB431C6A
:10059000012303FA0CF31A432046E31704EBD36359
:1005A0005B119B0003F1E023C3F800218148005D4B
:1005B00040EA06107F490855BDE8F08170B5044651
:1005C0000B46CE1701EB9676C6F38700CE1701EBEC
:1005D0009676B610A1EB8606B606350E764B9B696D
:1005E00043F00103744EB3614FEAB63353F8203041
:1005F0000F26AE40B343714E46F82030334653F8D1
:10060000203004FA05F61E436C4B43F820606C4B17
:100610001B6801268E403343694E336002F00103AC
:1006200043B1674B0C331B6801268E403343644E45
:100630000C36336002F0020343B1614B08331E688D
:1006400001238B401E435E4B08331E6070BD00B516
:10065000002059490861C860142048610020886161
:10066000C8610846006840F001000860084640681C
:1006700054490840504948600846006852490840BB
:100680004D4908600846006820F48020086008464C
:10069000406820F4FE0048600020886000214FF090
:1006A0000060FFF739FF00BD10B540480830006812
:1006B00040F004003D49083108603F48C06940F0FF
:1006C00080503D49C8614148406840F480703F49CE
:1006D00048600846006840F004000860084600686A
:1006E00040F002000860FFF76FFD10BD3048001DAC
:1006F0002E49091D08607047014649062E4A926935
:1007000042F001022C4B9A612C4A083A526822F0BE
:10071000E0622A4B083B5A601A4652680A435A6004
:10072000704730B504460025FFF791FF2248006866
:1007300040F480302049086000BF1F480068400C2A
:100740000028FAD04FF480601B494860A01EC4B254
:100750000846406840EA844048600846406840F4E3
:10076000803048601A48006840F03200184908603C
:100770001148006840F080700F49086000BF0E48C3
:100780000068400E0028FAD00B48406840F0020094
:100790000949486005E008484068C0F3870505F04E
:1007A0000305022DF7D130BD80FFFF1F08ED00E0EB
:1007B0000000FA0500E400E00010024008000140DB
:1007C000000401400000FFF8FFFFF6FE007000404B
:1007D00000200240014600BF704700BFA44A1288B3
:1007E00002F04002002AF9D0C2B2A14B1B1D1A80B0
:1007F00070479F49091D088000BF9D49098801F085
:1008000040010029F9D070479A49088000BF9949F2
:10081000091F098801F040010029F8D070472DE92F
:10082000F05F05460E46300104F0C8F88146924953
:1008300005FB01F004F0C2F88246494603F0A8FF28
:100840000746384604F082F884B2204604F0B6F831
:100850008346394604F0F7F982464FF0834104F0AD
:10086000F5F8814604F072F880464FF6FF7000EA12
:10087000041404EB080084B28048806940F004004E
:100880007E4988610846806940F4804088617C48E0
:10089000006820F47F607A4908600846006840F4E8
:1008A0000B6008607548C06840F480407349C860B8
:1008B0000846C06820F48040C8606D480830048055
:1008C000001D008842F20C01084369490C31088080
:1008D000BDE8F09F2DE9F05F05460E46300104F0BB
:1008E0006DF88146644905FB01F004F067F8824623
:1008F000494603F04DFF0746384604F027F884B216
:10090000204604F05BF88346394604F09CF98246A1
:100910004FF0834104F09AF8814604F017F88046BE
:100920004FF6FF7000EA041404EB080084B2534849
:10093000806940F00400514988610846C06940F46C
:100940000030C8614E48001F006820F47F404C49C9
:10095000091F08600846006840F40B4008604848DA
:100960000830006840F008004549083108604348F5
:10097000006940F40030414908610846006920F4EC
:10098000003008613B48001D0480001D008842F2D1
:100990000C0108433749083108800846008840F4B4
:1009A000807008800846008840F0200008800223FC
:1009B000262201210846FFF7C7FDBDE8F09F2C491C
:1009C000098801F0200121B32949091D0988C8B20D
:1009D0002C49098801F40041D9B92A49098801F450
:1009E000804171B10A2803D00021264A118022E0FB
:1009F0002449098841F40041224A118000211180D4
:100A000019E00D2806D11F49098841F480411D4A8B
:100A1000118010E01B490988C1F30D011A4A505496
:100A200018490988491C174A1180114609881E294E
:100A300001DD0021118070470E49091F098801F06E
:100A4000200199B10B490988C8B2622803D10F4926
:100A50000F4A11600AE0662803D10E490C4A116062
:100A600004E0732802D10C49094A11607047000064
:100A7000003801400444004040420F000010024092
:100A800004080140080000201A0400200000C442AD
:100A90000C0000200000CC420000E64215488069AE
:100AA00040F00800134988611348006820F0F00006
:100AB000114908600846006840F0200008600120E5
:100AC0000E490860704718B901210C4A11600FE007
:100AD0000B490968491C0A4A1160814208D107493B
:100AE0000968C943074AC2F884110021044A116009
:100AF0007047000000100240000C01408481214238
:100B000014000020008021421C48806940F0080049
:100B10001A4988611A48006820F07F401849086027
:100B20000846006840F00840086015480830006832
:100B300040F440401249083108607047114800688D
:100B4000012805D10F48001D006808B90120704731
:100B50000C48006830B90B48001D0068012801D11D
:100B60000220F4E70748006828B90648001D00681D
:100B700008B90320EBE70020E9E70000001002407D
:100B8000040C01403881214210B54FF48041FE48E9
:100B900002F0B1FB4FF40051FB4802F0ACFB4FF404
:100BA0000051F94802F0A9FB4FF48041F64802F0E9
:100BB000A4FB10BD10B54FF48041F34802F09BFB3D
:100BC0004FF40051F04802F098FB4FF40051EE480A
:100BD00002F091FB10BD10B54FF48041EA4802F0DD
:100BE0008AFB4FF48041E84802F087FB10BD2DE9F5
:100BF000F04105462C464FF48041E34802F07DFB6E
:100C000000261CE0274607F08007802F04D1B90199
:100C1000DD4802F070FB04E04FF40051DA4802F0C6
:100C20006CFB6006040E4FF48041D74802F063FB72
:100C30004FF48041D44802F060FB701CC6B2082E0D
:100C4000E0DBBDE8F08110B50446FFF79DFF78209A
:100C5000FFF7CDFFFFF7BFFF0020FFF7C8FFFFF74B
:100C6000BAFF2046FFF7C3FFFFF7B5FFFFF7A2FF6C
:100C700010BD10B50446FFF787FF7820FFF7B7FFD8
:100C8000FFF7A9FF4020FFF7B2FFFFF7A4FF2046C0
:100C9000FFF7ADFFFFF79FFFFFF78CFF10BD70B5AB
:100CA00004460D461DB1E0B2FFF7E3FF02E0E0B2FB
:100CB000FFF7C9FF70BD70B504460D4605F1B000E1
:100CC0000021FFF7ECFF102141EA14100021FFF78B
:100CD000E6FF04F00F000021FFF7E1FF70BD10B543
:100CE00000218D20FFF7DBFF00211420FFF7D7FF45
:100CF0000021AF20FFF7D3FF10BD10B500218D20DC
:100D0000FFF7CDFF00211020FFF7C9FF0021AE2023
:100D1000FFF7C5FF10BD70B5002418E004F1B00066
:100D20000021FFF7BCFF00210846FFF7B8FF0021B4
:100D30001020FFF7B4FF002505E001210846FFF76A
:100D4000AEFF681CC5B2802DF7DB601CC4B2082C56
:100D5000E4DB70BD2DE9F04707460E469046994604
:100D600000250024A8F12000C5B27F2F02DD002756
:100D7000B01CC6B2B9F1100F24D131463846FFF786
:100D80009AFF002408E004EB0511804A505C012121
:100D9000FFF785FF601CC4B2082CF4DB701CC1B2E5
:100DA0003846FFF788FF002409E004EB05110831FD
:100DB000764A505C0121FFF772FF601CC4B2082C18
:100DC000F3DB12E031463846FFF775FF00240AE0F6
:100DD00005EB45016E4A02EB4101085D0121FFF779
:100DE0005EFF601CC4B2062CF2DBBDE8F08710B5D4
:100DF0000246012000E050430B00A1F10104E1B2E2
:100E0000F9D110BD2DE9FF5F074691461E460E9DA4
:100E10004FF0000A002435E0301B401EC1B20A200A
:100E2000FFF7E5FFB9FBF0F00A21B0FBF1F201FB9F
:100E30001208BAF1000F14D1701EA04211DDB8F1F2
:100E4000000F0CD1AB4605EBDB71491001FB0471BF
:100E5000C8B22B4620220199FFF77CFF10E04FF02B
:100E6000010AAB4605EBDB71491001FB0471C8B206
:100E700008F13001CAB22B460199FFF76BFF00BFA2
:100E8000601CC4B2B442C7DBBDE8FF9F2DE9F0414E
:100E900004460F461546984600260FE0AA5D4346D5
:100EA00039462046FFF756FF04F10800C4B2782CFB
:100EB00002DD0024B81CC7B2701CC6B2A85D0028B1
:100EC000ECD1BDE8F0812DE9F04180460E46154693
:100ED000002731464046FFF7EEFE00240AE02D4A87
:100EE00002EB8511085D0121FFF7D9FE781CC7B21E
:100EF000601CC4B2102CF2DB701CC1B24046FFF77C
:100F0000DAFE00240CE06900491C224A02EB411180
:100F1000085D0121FFF7C3FE781CC7B2601CC4B294
:100F2000102CF0DBBDE8F08108B50121102002F0A3
:100F3000F1FB4FF4C040ADF8000010208DF8030025
:100F400002208DF8020069460F4802F027F94FF49D
:100F5000C0410D4802F0CFF94FF44870FFF7BCFADA
:100F60000021AE20FFF79BFE00210846FFF797FE09
:100F700000211020FFF793FE00214020FFF78FFE95
:100F80000021B02008E00000001001405E50000881
:100F9000364E000818000020FFF781FE0021812056
:100FA000FFF77DFE0021FF20FFF779FE0021A12041
:100FB000FFF775FE0021A620FFF771FE0021A82093
:100FC000FFF76DFE00213F20FFF769FE0021C820DA
:100FD000FFF765FE0021D320FFF761FE00210846E0
:100FE000FFF75DFE0021D520FFF759FE002180208C
:100FF000FFF755FE0021D820FFF751FE0021052004
:10100000FFF74DFE0021D920FFF749FE0021F12016
:10101000FFF745FE0021DA20FFF741FE00211220F4
:10102000FFF73DFE0021DB20FFF739FE00213020D5
:10103000FFF735FE00218D20FFF731FE002114203F
:10104000FFF72DFE0021AF20FFF729FE08BD0000AD
:10105000B948806940F00800B7498861B74800681E
:1010600020F00F00B5490860B348806940F4007073
:10107000B14988610846C06840F40070C8600846FD
:10108000C06820F40070C8600846406820F4404002
:1010900048600846406840F400404860A84800683E
:1010A000A8490840A6490860084600680860084644
:1010B000006820F480700860081D006820F00200BD
:1010C000091D08600846006820F460200860084692
:1010D000006840F4602008600846006840F4801012
:1010E00008600846006820F40060086094482830D2
:1010F000006820F4700092492831086008460068B2
:10110000002008608E480C30006820F070608C4928
:101110000C3108600846006840F4E0100860884818
:10112000001D006840F001008549091D086008465F
:10113000006840F00800086000BF8148001D00689A
:1011400000F008000028F8D17D48001D006840F03C
:1011500004007B49091D086000BF7948001D006834
:1011600000F004000028F8D1704701467448303080
:10117000006820F01F00724A30321060104600688C
:10118000084310606E48001D006840F480006C4AFF
:10119000121D106000BF6A48001F006800F00200C6
:1011A0000028F8D066484830006880B270472DE9C2
:1011B000F84F0820FFF7D9FF009003F0FFFB8346AC
:1011C00003F04CFA80464FF066325F4B03F01CF898
:1011D000064600225D4B02F06BFE044602F07AFDEB
:1011E00082465046BDE8F88F10B55348806940F0FC
:1011F0000400514988615648006820F07040544905
:1012000008604D48806940F400704B498861084689
:10121000C06840F40070C8600846C06820F40070E0
:10122000C8600846406820F440404860084640686E
:1012300040F4004048604248006842490840404944
:1012400008600846006808600846006820F480705E
:101250000860081D006820F00200091D08600846AB
:10126000006820F4602008600846006840F46020B0
:1012700008600846006840F480100860084600686E
:1012800020F4006008602E482830006820F47000C8
:101290002B4928310860084600680020086028486B
:1012A0000C30006820F0704025490C310860084679
:1012B000006840F4600008602148001D006840F0AC
:1012C00001001F49091D08600846006840F0080039
:1012D000086000BF1A48001D006800F008000028E0
:1012E000F8D11748001D006840F004001449091D9A
:1012F000086000BF1248001D006800F004000028CC
:10130000F8D10120FFF7E8F810BD2DE9F0410746BC
:101310000C460025002608E03846FFF726FF054466
:10132000C820FFF7BDF8701CC6B2A642F4DBB5FBBF
:10133000F4F080B2BDE8F08100100240000C0140E2
:1013400004240140FFFFF00066661A400000B04030
:101350000008014070B505460C461348806940F40A
:1013600000601149886111480580001F04800F4802
:101370002038008840F001000C49203908800846D8
:10138000008840F04000088008482C38008840F071
:10139000010006492C39088002231922032118462E
:1013A000FFF7D2F870BD0000001002402C2C014065
:1013B00008B50121042002F0ADF97020ADF800005D
:1013C00010208DF8030003208DF8020069462D4897
:1013D00001F0E4FE01202C49086000202B49C1F8EF
:1013E000940108BD70B505460C46FFF7E1FF28489B
:1013F000C06940F002002649C8610846806940F093
:10140000080088610846806940F0040088611D4832
:10141000006820F070401B4908600846006840F0F2
:10142000304008601B480580001F048019481438AC
:10143000008840F4E04017491439088008460088C5
:1014400040F40060088013480C38008840F0100019
:1014500010490C3908800F481830008840F40040CB
:101460000C491831088080200A492C390880084628
:10147000008840F00100088041F61F4005490C310A
:10148000088070BD00080140900121420000214207
:10149000001002402C04004010B56948C06940F0BB
:1014A00001006749C8610846806940F0040088610E
:1014B0006448006820F0FF00624908600846006840
:1014C00040F044000860C804808940F00100C9046D
:1014D00088810846808940F04000888101231C22D1
:1014E00003211846FFF730F800204FF080410885AF
:1014F0004FF6FF7088850846008820F44070088009
:101500000846008820F0600008800846008B40F004
:10151000010008830846008B40F480700883084669
:10152000008C20F0020008840846008C20F0200087
:1015300008840846008B40F0300008830846008984
:1015400040F003000881002088840846008840F0AD
:101550000100088010BD3A48C06940F004003849D5
:10156000C8610846806940F0080088613648006814
:1015700020F07F40344908600846006840F0884009
:1015800008600020314908804FF6FE70091D088070
:101590002E481038008840F001002C49103908808E
:1015A0000846008840F48070088028480838008881
:1015B00026490839088008460088088023482038D2
:1015C000008840F003002149203908801F4828384E
:1015D000008840F001001D49283908807047014605
:1015E000022904D003290BD0042919D10FE04FF0B0
:1015F0008042928C10B200224FF080439A8411E016
:10160000134A128810B20022114B1A800AE00F4AC6
:10161000121F128810B200220C4B1B1F1A8001E00F
:10162000002000BF00BF70474FF08040008A4FF09D
:101630008040008A20F001004FF08041088270470E
:101640000010024000080140000C01402808004042
:1016500024040040014605E0002001E0421CD0B215
:101660000A28FBDB0A00A1F10103D9B2F4D17047CB
:1016700010B50220FEF714FF10BD08B501210420AB
:1016800002F048F84FF4C050ADF8000010208DF87B
:10169000030003208DF802006946DA4801F07EFD60
:1016A0004FF4C051D74801F026FE08BD10B5D5480B
:1016B000001D006820F47040D249091D08600846EA
:1016C000006840F4405008600120CF490860CF49CD
:1016D000C1F8B001FFF7CCFF0020CB490860FFF74D
:1016E000C7FF0020C949C1F8B00110BD10B5C548F9
:1016F000001D006820F47040C249091D08600846BA
:10170000006840F4405008600020BF49091D08608F
:10171000BE49C1F8AC01FFF7ABFF0120BA49091D72
:101720000860BA49C1F8AC01FFF7A2FF10BD10B5BF
:101730000024B448001D006820F47040B149091D20
:1017400008600846006840F4004008600120AE4987
:101750000860FFF78DFF0120AC49C1F8B001FFF729
:1017600087FF07E0601CC4B2FA2C03DDFFF7BEFF61
:10177000012010BDA448803800680028F2D1A24999
:10178000091D086000BFF4E710B500209E49091D3F
:1017900008609C48001D006820F470409949091DAC
:1017A00008600846006840F44050086000209749EF
:1017B000C1F8AC01FFF75CFF01209349091D0860E7
:1017C000FFF756FF00209149C1F8B00110BD10B5D8
:1017D00000208D49091D08608A48001D006820F41A
:1017E00070408849091D08600846006840F4405070
:1017F000086001208549C1F8AC01FFF739FF0120DD
:101800008149091D0860FFF733FF00207F49C1F8B7
:10181000B00110BD70B504467A48001D006820F480
:1018200070407849091D08600846006840F440503F
:10183000086000207449091D0860002512E0E009D5
:10184000714908606006040E01207049C1F8B001BA
:10185000FFF70EFF00206C49091D0860FFF708FF25
:10186000681CC5B2082DEADB70BD70B505460024C2
:101870006448001D006820F470406249091D08603A
:101880000846006840F400400860002615E000208B
:101890005D49091D0860FFF7EBFE01205B49C1F8B7
:1018A000B0016006040E58488038006808B1601C1A
:1018B000C4B2FFF7DDFE701CC6B2082EE7DB15B917
:1018C000FFF785FF01E0FFF75FFF204670BD70B5B1
:1018D00004460D461646FFF7E9FE002141EA4401A1
:1018E000C8B2FFF797FFFFF722FF2846FFF792FFE6
:1018F000FFF71DFF3046FFF78DFFFFF718FFFFF7DB
:10190000F5FE002070BD70B504460D46FFF7CEFE13
:10191000002141EA4401C8B2FFF77CFFFFF707FF4F
:101920002846FFF777FFFFF702FFFFF7BFFE012111
:1019300001EB4401C8B2FFF76DFFFFF7F8FE00208E
:10194000FFF793FF0646FFF7D1FE304670BD2DE945
:10195000F04105460E4617469846FFF7A7FE0021C0
:1019600041EA4501C8B2FFF755FFFFF7E0FE3046F8
:10197000FFF750FFFFF7DBFE002407E018F8040034
:10198000FFF748FFFFF7D3FE601CC4B2BC42F5DB93
:10199000FFF7ACFE0020BDE8F0812DE9F0410646DE
:1019A0000F4614461D46FFF781FE002141EA46011D
:1019B000C8B2FFF72FFFFFF7BAFE3846FFF72AFF3E
:1019C000FFF7B5FEFFF772FE012101EB4601C8B239
:1019D000FFF720FFFFF7ABFE0DE0012C04D1002044
:1019E000FFF743FF287003E00120FFF73EFF287058
:1019F000601EC4B26D1C002CEFD1FFF777FE0020F3
:101A0000BDE8F08100080140AC0121420000214204
:101A100010B5FFF732FE80226B216820FFF757FFD9
:101A20006420FEF759FD00226B216820FFF74FFF6D
:101A3000012219216820FFF74AFF04221A21682099
:101A4000FFF745FF10221B216820FFF740FF092206
:101A50001C216820FFF73BFF75216820FFF753FF2B
:101A60000446682C04D100226C21FFF730FF01E00E
:101A7000012010BD2D20FEF72FFD0020F9E71FB536
:101A800002AB06223B216820FFF787FF6B46062248
:101A900043216820FFF781FF9DF809009DF8081099
:101AA00040EA012000B2914908809DF80B009DF8A2
:101AB0000A1040EA012000B28C4948809DF80D00D0
:101AC0009DF80C1040EA012000B2884988809DF8FA
:101AD00001009DF8001040EA012000B28349888689
:101AE0009DF803009DF8021040EA012001B27F48F2
:101AF000C1869DF805009DF8041040EA012001B25E
:101B00007A4801870146B1F900100246B2F9202057
:101B1000881A02F03BFF75498862B1F90220B1F9D9
:101B20002210501A02F032FF7049C862B1F9342015
:101B3000B1F95410501A02F029FF6C49C865B1F987
:101B40003620B1F95610501A02F020FF01466748BE
:101B500001660146B1F93820B1F95810501A02F067
:101B600015FF0146614841661FBD30B58BB00025A9
:101B70000020069007900890039004900590009034
:101B800001900290AAE0C82D5CDAFFF778FF574970
:101B9000B1F934100398084403905448B0F9360062
:101BA0000499084404905148B0F938000599084454
:101BB00005904E49B1F900100098084400904B4937
:101BC000B1F902100198084401904849B1F9041094
:101BD000029808440290BDF92410444AB2F9342016
:101BE000881A002801DB014600E04142069A1144B0
:101BF0000691BDF926203D49B1F93610501A00284A
:101C000001DB014600E04142079A11440791BDF90A
:101C100028203649B1F93810501A002801DB014656
:101C200000E04142089A114408913048808EADF896
:101C300024002E48C08EADF826002C48008FADF849
:101C4000280049E006983C2805DA07983C2802DA83
:101C500008983C2810DB002500240AE0002006A993
:101C600041F8240003A941F824004DF82400601C29
:101C7000C4B2032CF2DB2FE0C821009890FBF1F0F6
:101C800000B21A490884C821019890FBF1F001B212
:101C900016484184C821029890FBF1F001B2134824
:101CA0008184C821039890FBF1F001B20F48A0F89D
:101CB0005410C821049890FBF1F001B20B48A0F831
:101CC0005610C821059890FBF1F001B20748A0F822
:101CD0005810012006490870681CC5B204480078F5
:101CE00000283FF450AF0BB030BD0000300400209E
:101CF000980300208A488B4948608B4848607047A9
:101D00008848006940F0800086490861704785482E
:101D1000C16801F0010008B10120704701F0040022
:101D200008B10220F9E701F0100008B10320F4E740
:101D30000020F2E770B5044600BFFFF7E8FF054654
:101D4000012D00D006E00120FEF7AAFB601E84B240
:101D5000002CF2D100BF04B9FF25284670BD70B534
:101D60000546002445F6FF70FFF7E4FF0446C4B9BA
:101D70006C48006940F002006A4908610846456104
:101D8000006940F04000086145F6FF70FFF7D2FFA0
:101D90000446012C05D06348006920F00200614927
:101DA0000861204670BD70B505460E46FF20FFF75E
:101DB000C1FF044694B95B48006940F001005949ED
:101DC00008612E80FF20FFF7B5FF0446012C05D0E7
:101DD0005448006920F0010052490861204670BD56
:101DE0000146088870472DE9F04105460E46174622
:101DF000002407E036F814102846FFF7D4FFAD1C86
:101E0000601C84B2BC42F5DBBDE8F08130B503460E
:101E10000C461546002207E01846FFF7E1FF24F8BC
:101E200012009B1C501C82B2AA42F5DB30BD2DE98A
:101E3000F05F80468A461746B8F1006F02D33B48F0
:101E4000804501D3BDE8F09FFFF754FFA8F1006B78
:101E50004FEADB25CBF34909C9F58064A74200DCD2
:101E60003C464EE04FF0006101EBC5204A1430497A
:101E7000FFF7CCFF00260BE009EB06002C4931F8F8
:101E800010004FF6FF71884200D003E0701C86B24C
:101E9000A642F1DB00BFA6421BDA4FF0006101EB66
:101EA000C520FFF75CFF002608E03AF8160006EBB5
:101EB00009011F4A22F81100701C86B2A642F4DB09
:101EC0004FF0006101EBC5204A141949FFF78BFF61
:101ED00004E0224651464046FFF785FFA74200D165
:101EE00010E06D1C4FF000090AEB440A08EB4408AF
:101EF000381B87B2B7F5806F02DD4FF4806400E0D5
:101F00003C46AFE700BFFFF7FBFE00BF9AE713B503
:101F10000446012201A92046FFF789FF1CBD0000ED
:101F20002301674500200240AB89EFCD0000040883
:101F3000980400202DE9F04F8DB00AAB06223B211A
:101F40006820FFF72AFD08AB062243216820FFF72F
:101F500024FD9DF829009DF8281040EA012000B2D8
:101F6000F84908809DF82B009DF82A1040EA0120CE
:101F700000B2F44948809DF82D009DF82C1040EAED
:101F8000012000B2EF4988809DF821009DF82010C3
:101F900040EA012000B2EB4988869DF823009DF8B5
:101FA000221040EA012001B2E648C1869DF82500D2
:101FB0009DF8241040EA012001B2E2480187014661
:101FC000B1F9360002F0E2FC0590DE49B1F93800C3
:101FD00002F0DCFC0490DB49B1F9000002F0D6FC11
:101FE0000790D849B1F9040002F0D0FC06904FF0F8
:101FF0008E41059802F0F6FD05D24FF08F4105980D
:1020000002F02CFE05904FF08E41049802F0EAFD9C
:1020100005D24FF08F41049802F020FE04904FF05B
:102020008E41079802F0DEFD05D24FF08F410798F0
:1020300002F014FE07904FF08E41069802F0D2FD98
:1020400005D24FF08F41069802F008FE06900698E0
:1020500002F004FBCDE90201079802F0FFFACDE996
:102060000001DDE9022301F075FD80460022B64B38
:1020700002F0CAF80646B54AB54B01F019FF04460E
:1020800001F028FE8346059802F0E8FA06464FF074
:102090006632B04B01F00CFF044601F01BFE0590C8
:1020A000A849B1F9340002F071FC8246A549B1F9A2
:1020B000020002F06BFC83464FF08E41504602F066
:1020C00091FD05D24FF08F41504602F0C7FD824688
:1020D0004FF08E41584602F085FD05D24FF08F41FA
:1020E000584602F0BBFD83468AF000409A490860DA
:1020F000584602F0B3FACDE90001069802F0AEFAB4
:102100000646DDE9002301F025FD00228E4BCDE9D6
:10211000020102F079F804468C4A8D4B01F0C8FEAA
:10212000804601F0D7FD0790504602F097FA064628
:102130004FF06632874B01F0BBFE044601F0CAFD4A
:1021400082468AF000442146079800F081FF0DB0D6
:10215000BDE8F08F0146002901DA484200E0084658
:10216000704700B5034641F61F425042834200DAF1
:102170005342934200DD1346002B03DA00207749D7
:10218000086002E00120754908601846FFF7E2FF89
:1021900041F61F41081A7249088000BD2DE9F14F30
:1021A00084B0704803904FF03F40029000200190AF
:1021B0006D48006802F052FA06466C4A6C4B02F019
:1021C00023F8044601F086FD67490860049801F091
:1021D000C7FF80464FF06632664B02F015F80446A2
:1021E0000D466148006802F039FA064622462B4641
:1021F00001F0A2FD824601F06DFD5B4908600846D2
:1022000001685D48006802F055FA5B4908605B4967
:102210005948006802F0E6FC02D258485649086066
:1022200057495548006802F0DDFB02D25448524934
:102230000860544801684C48006802F00FFD0646EB
:10224000019902F003FC04464B480168029802F031
:10225000FDFB064644480168039802F0F7FB074679
:10226000314602F027FA0546214602F023FA464994
:1022700008603D480068434908604348006802F030
:1022800049FB05B0BDE8F08F2DE9FF5F06460C461F
:102290003E4F4FF000084FF081493D4801683046FD
:1022A00002F0DCFC03903B480399006802F002FA5C
:1022B0003849086038493748006802F093FC02D278
:1022C00035483449086035493248006802F08AFBD5
:1022D00002D232482F4908603148046049460068FC
:1022E00002F0B4FB02902B480168404602F0AEFBBE
:1022F00001903846039902F0A9FB0090019902F081
:10230000D9F98346029902F0D5F9824602F002FB20
:102310000546284604B0BDE8F09F2DE9F04121486C
:1023200000680A2844DD1A48006802F097F906465A
:102330001D4A1E4B02F0A8F8044601F0CBFC1449DC
:10234000086048E03004002000806640F1D4C853A3
:10235000FB21094066663040B80300209801214205
:1023600038040040000016C4D4030020CDCCCCCCEF
:10237000CCCCE43F6666D63FCC03002000401C4630
:1023800000401CC6D0030020C80300200000E14329
:10239000A0030020F40300200060EA460060EAC6C3
:1023A000F0030020A8030020FCA9F1D24D62503FA9
:1023B000FD48006810F10A0F0DDAFC48006802F0D1
:1023C0004DF90646FA4AFB4B01F0B6FC044601F013
:1023D00081FCF6490860F448006814280EDDF348D3
:1023E000006802F03BF90646F14AF34B02F04CF864
:1023F000044601F06FFCED49086012E0EA4800680D
:1024000010F1140F0DDAE948006802F027F90646CA
:10241000E74AE94B01F090FC044601F05BFCE3491C
:102420000860E14800681E280EDDE048006802F000
:1024300015F90646E14AE24B02F026F8044601F09F
:1024400049FCDA49086012E0D748006810F11E0F15
:102450000DDAD648006802F001F90646D74AD84B93
:1024600001F06AFC044601F035FCD0490860D5480B
:102470000168D5480068FFF707FFD4490860CA48DB
:102480000068FFF78BFED2490860D04800680968F1
:102490000844D0490860BDE8F0812DE9F05F0446AA
:1024A0000D464FF080464FF07C57204602F06EFA02
:1024B0008046294602F0D2FBC749086008460168F9
:1024C000384602F0C3FA8246C4480168C248006830
:1024D00002F0C4FB8346314602F0B8FA8146514609
:1024E00002F0E8F88046BE480168404602F0E2F893
:1024F000BB490860B8480068B8490860B848006837
:1025000002F008FABDE8F09F2DE9FC5FB5480078BD
:1025100010B90B20B3490870B24800780B2841D19C
:10252000019802F09BF80646AF4AB04B01F06CFEF2
:10253000044601F0CFFB0190A3480168AC48006855
:1025400002F08CFB009002F089F88246A64AA94B63
:1025500001F05AFE06460F46019802F07FF88046C9
:1025600032463B4601F0E8FB044601F0B3FB019024
:10257000019802F073F80446904A9F4B01F008FE60
:1025800008D3019802F06AF804468C4A9B4B01F08C
:1025900039FF02D20C20934908708B480168944897
:1025A00001606EE08F4800780C283ED186480068B4
:1025B00002F054F807460022914B01F065FF0546F2
:1025C00001F088FB04468F480168204602F03EFA7D
:1025D00005462946744800684042FFF75EFF7D4982
:1025E00008607148006802F0D1F905468548016825
:1025F000204602F02BFA0646294602F02FFB8146C0
:102600008149484602F0EEF90ED28049484602F070
:10261000E9FA09D20D207349087000206F4908605B
:102620006F4908606C4908602BE06E4800780D28FF
:1026300027D100241AE00220FEF7D1FF40425A4978
:10264000086008460068C0EB0010C00161490860DE
:1026500008460068FFF785FDFFF76CFC0520FDF7D5
:102660003BFF641CB4F5C87F00DD05E068495648AF
:10267000006802F0B7F9DED300BF002059490870A6
:1026800000BFBDE8FC9F2DE9FC5F5648007810B9FB
:1026900001205449087053480078012841D101981D
:1026A00001F0DCFF0646504A504B01F0ADFD0446F8
:1026B00001F010FB0190444801685648006802F0A0
:1026C000CDFA009001F0CAFF8246474A494B01F01B
:1026D0009BFD06460F46019801F0C0FF804632463A
:1026E0003B4601F029FB044601F0F4FA0190019801
:1026F00001F0B4FF0446314A3F4B01F049FD08D3D5
:10270000019801F0ABFF04462C4A3C4B01F07AFEE5
:1027100002D20220334908702B4801683D4801600D
:10272000A7E030480078022877D12748006801F0F8
:1027300095FF07460022324B01F0A6FE054601F048
:10274000C9FA04462F480168204602F07FF9054681
:102750002946154800684042FFF79FFE1D49086062
:102760001148006802F012F9054626480168204623
:1027700002F06CF90646294602F070FA81462249B9
:10278000484602F02FF90ED22049484602F02AFAB4
:1027900009D203201349087000201049086010492D
:1027A00008600D49086064E0A8030020A003002031
:1027B000FCA9F1D24D62503F4D62603F7B14AE47A1
:1027C000E17A743FB8030020B4030020D80300204E
:1027D000DC030020AC030020BC030020C403002065
:1027E000C0030020E00300209A9999999999E93F44
:1027F000EC0300209999C93FE17A843FE17A84BFD4
:10280000008056409C03002000004040000040C073
:1028100000009642E8030020FFE7DC480078032828
:1028200027D100241AE00220FEF7D9FE4042D84901
:10283000086008460068C0EB0010C001D549086078
:1028400008460068FFF78DFCFFF774FB0520FDF7D5
:1028500043FE641CB4F5C87F00DD05E0CE49CF48D7
:10286000006802F0BFF9DED300BF0020C74908703E
:1028700000BFBDE8FC9F2DE9F041C948008800F089
:10288000010000287DD0C648008820F00100C4491E
:102890000880FFF74FFBFEF78AFC0646C14902F0AD
:1028A000D5F8054602F036F8BF4908600220FEF769
:1028B00096FE4042B6490860BC49B848006802F03C
:1028C00091F90BD20020BA490860BA490860BA49A8
:1028D0000860BA490860FFF7D6FE13E0B849AF4870
:1028E000006802F07FF80BD20020B1490860B149BE
:1028F0000860B1490860B1490860FFF705FE01E0D2
:10290000FFF70BFDA3480068FFF72BFCFEF716F955
:102910000446032C70D10020FFF723FC02E0FEF7F1
:102920000DF90446032CFAD0002000F02DFB0C23F7
:10293000A4A20A210520FEF7A9FA0C23A3A20421D0
:102940000A20FEF7A3FA4FF47A70FDF7C5FD0020C8
:1029500000F01AFB14E1FFF7EDFAFEF728FC05463C
:1029600001F0D8FF904908600220FEF738FE40428F
:1029700087490860FEF7E2F80446974987480068EF
:1029800000E000E102F02EF805D394498348006886
:1029900002F028F971D2012C2FD18F497F480068AD
:1029A00002F020F80ED28E48006801F057FE05466E
:1029B0008C4A8D4B01F068FD074601F08BF9884980
:1029C000086013E085497548006802F00BF90DD2E4
:1029D0008348006801F042FE0546824A824B01F0BE
:1029E000ABF9074601F076F97D49086000F01CF963
:1029F000C820FDF771FDBEE0C4E0022CFBD1764992
:102A00006648006801F0EEFF0ED27848006801F0D9
:102A100025FE0546764A774B01F036FD074601F064
:102A200059F97249086013E06C495C48006802F08B
:102A3000D9F80DD26D48006801F010FE05466C4AC9
:102A40006C4B01F079F9074601F044F967490860D9
:102A50006648006801F002FE05464FF03332664BCF
:102A600001F0D0FC02D265486049086000F0DCF853
:102A7000C820FDF731FD7EE0FFE7032C7BD100206D
:102A800000F082FA0C235EA203210520FEF7FEF976
:102A90000C235EA204210A20FEF7F8F95E49504893
:102AA000006801F0D3FF054601F034FF642190FB7C
:102AB000F1F05A49088058494948006801F0C6FFBA
:102AC000054601F027FF642190FBF1F201FB1200A3
:102AD0000A2190FBF1F0514948804F494048006875
:102AE00001F0B4FF054601F015FF0A2190FBF1F259
:102AF00001FB12004949888049493C48006801F0BF
:102B0000A5FF054601F006FF642190FBF1F0434963
:102B1000C88043493548006801F098FF054601F038
:102B2000F9FE642190FBF1F201FB12000A2190FBF7
:102B3000F1F03A4908813A492C48006801F086FFD3
:102B4000054601F0E7FE0A2190FBF1F201FB1200BD
:102B50003249488107223348FFF769F94FF47A7008
:102B6000FDF7BAFC4FF47A70FDF7B6FC002000F0D8
:102B70000BFA06E0FFE700F057F80520FDF7ACFC84
:102B8000E9E600BF00BF0020BDE8F081E0030020BF
:102B9000A8030020AC0300200000D242B4030020B0
:102BA000102C014000007A44B00300200000F042E5
:102BB000D4030020D0030020CC030020C803002051
:102BC000000070425345545F55500000456E7465D7
:102BD00072696E672E2E2E0000008C420000DC42CF
:102BE000A40300209A9999999999B93F9C030020D0
:102BF0007B14AE47E17A843F3333E33F9A99193F20
:102C0000506172616D65746572730000536176691D
:102C10006E672E2E2E000000000020410C040020C4
:102C20000000C84200700008F8B50C23E6A200219D
:102C30000846FEF72BF9E748006800280FDB0C2355
:102C4000E5A200215020FEF721F90C20032300907B
:102C5000E048002102685720FEF7D4F80FE00C236B
:102C6000DEA200215020FEF711F90C200323009072
:102C7000D8480068424200215720FEF7C3F80C23D1
:102C8000D7A201210020FEF701F90C2004230090B7
:102C9000D648012102683C20FEF7B4F80C23D4A2E8
:102CA00001216420FEF7F2F80C23D2A202210020B9
:102CB000FEF7ECF80021D248006801F093FF13D82A
:102CC0000C23C5A202213D20FEF7E0F8CC480068A5
:102CD00001F03CFE04460C20042322460221009011
:102CE0004420FEF78FF815E00C23BCA202213D2002
:102CF000FEF7CCF8C248006880F00045284601F095
:102D000025FE04460C200423224602210090442084
:102D1000FEF778F80C23B8A203210020FEF7B6F8DE
:102D20000021B848006801F05DFF34D80C23AAA246
:102D300003211E20FEF7AAF8B248006801F006FE43
:102D400004460C2003232246194600902520FEF756
:102D500059F80C23ACA203213720FEF797F8AB49B2
:102D6000A848006801F072FE054601F0D3FD0A2173
:102D700090FBF1F201FB12040C20012322460321F7
:102D800000903C20FEF73EF80C23A1A20321442032
:102D9000FEF77CF839E00C2390A203211E20FEF7F9
:102DA00075F89848006880F00045284601F0CEFD8F
:102DB00004460C2003232246194600902520FEF7E6
:102DC00021F80C2390A203213720FEF75FF88D48ED
:102DD000006880F000468D49304601F037FE054618
:102DE00001F098FD0A2190FBF1F201FB12040C2086
:102DF00001232246032100903C20FEF703F80C2318
:102E000083A203214420FEF741F80C2381A2042170
:102E10000020FEF73BF80C20032300907F48027847
:102E200004213720FDF7EEFF0C237DA205210020B1
:102E3000FEF72CF87C48006801F088FD04460C2061
:102E400002232246052100903220FDF7DBFF0C23F0
:102E50006DA205214120FEF719F86C4972480068FF
:102E600001F0F4FD054601F055FD0A2190FBF1F259
:102E700001FB12040C2001232246052100904A2068
:102E8000FDF7C0FF0C2362A205215220FDF7FEFFD3
:102E90000C2366A206210020FDF7F8FF66480068B3
:102EA00001F054FD04460C20022322460621009026
:102EB0004D20FDF7A7FF0C2353A206215920FDF753
:102EC000E5FF52495C48006801F0C0FD054601F08D
:102ED00021FD0A2190FBF1F201FB12040C200123D9
:102EE0002246062100905E20FDF78CFF0C2348A2AD
:102EF00006216620FDF7CAFF0C2350A207210020FF
:102F0000FDF7C4FF5048006801F020FD04460C2086
:102F100003232246072100904620FDF773FF0C2370
:102F200039A207215920FDF7B1FF484946480068FA
:102F300001F08CFD054601F0EDFC0A2190FBF1F457
:102F40000C2001232246072100905E20FDF75AFF46
:102F50003E493D48006801F079FD054601F0DAFC84
:102F60000A2190FBF1F201FB12040C2001232246FE
:102F7000072100906620FDF745FF0C2324A20721BE
:102F80006E20FDF783FFF8BD70B50646002418E0FB
:102F900004F1B0000021FDF782FE00210846FDF794
:102FA0007EFE00211020FDF77AFE002505E00121BC
:102FB0003046FDF774FE681CC5B2802DF7DB601C3F
:102FC000C4B2082CE4DB70BD565F576865656C3A87
:102FD00000000000A80300202B0000002D000000CE
:102FE000566F6C5F4261743A00000000B00300202D
:102FF0006D5600004779725F526F6C3A0000000016
:10300000B8030020B40300202E000000000020417F
:103010006465670053746174653A0000E003002042
:1030200043656E5F473A0000A003002043656E5F72
:103030005345543A00000000A4030020456E655F2C
:1030400053746F3A000000009C0300200000C84247
:103050002DE9F04F89B083468A46504601F0FEFACA
:103060008046174A174B01F0CFF806460F46164820
:10307000006801F0F3FA32463B46CDE9000100F06A
:103080005BFE0446114A124B01F0BEF8CDE9040183
:10309000584601F0E3FA04460E4A0F4B01F0B4F82B
:1030A000CDE90201DDE9042300F046FECDE9060189
:1030B00000F010FE0449086009B0BDE8F08F000080
:1030C000FA7E6ABC7493683FB4030020CDCCCCCCAC
:1030D000CCCCEC3F9A9999999999B93F10B504468F
:1030E000CC48844208D10121042000F02DFB0021AE
:1030F000042000F029FB46E0C748844208D10121A2
:10310000082000F021FB0021082000F01DFB3AE020
:10311000C248844208D10121102000F015FB002193
:10312000102000F011FB2EE0BD48844208D101219F
:10313000202000F009FB0021202000F005FB22E008
:10314000B848844208D10121402000F0FDFA002156
:10315000402000F0F9FA16E0B348844208D101217A
:10316000802000F0F1FA0021802000F0EDFA0AE062
:10317000AE48844207D10121801500F0E5FA002114
:10318000A01500F0E1FA10BD10B50121084600F0CD
:10319000DBFA0021012000F0D7FA10BD2DE9F04143
:1031A000024600250026002000230024002791F875
:1031B00003C00CF00F0591F803C00CF0100CBCF12B
:1031C000000F03D091F802C04CEA050591F800C049
:1031D000BCF1000F31D0146800202BE04FF0010C3F
:1031E0000CFA00F3B1F800C00CEA03069E4220D1AD
:1031F00083004FF00F0C0CFA03F7BC4305FA03FCF5
:103200004CEA040491F803C0BCF1280F06D14FF03A
:10321000010C0CFA00FCC2F814C00AE091F803C0DB
:10322000BCF1480F05D14FF0010C0CFA00FCC2F8BC
:1032300010C0401C0828D1D31460B1F800C0BCF104
:10324000FF0F34DD546800202EE000F1080C4FF031
:10325000010808FA0CF3B1F800C00CEA03069E421C
:1032600021D183004FF00F0C0CFA03F7BC4305FA91
:1032700003FC4CEA040491F803C0BCF1280F05D10B
:1032800000F1080C08FA0CF8C2F8148091F803C099
:10329000BCF1480F07D100F1080C4FF0010808FA03
:1032A0000CF8C2F81080401C0828CED35460BDE84A
:1032B000F0814FF6FF710180022181700421C170FD
:1032C00070470246002093680B400BB1012000E0DC
:1032D000002070470146886880B27047024600208F
:1032E000D3680B400BB1012000E00020704701467D
:1032F000C86880B2704701617047416170470AB188
:10330000016100E041617047C16070474FF4803255
:103310000A438261816182618269826970470246E3
:103320000020434B18684FF68073184040EA0210A3
:1033300008433F4B186070473E49C8617047F0B57D
:103340000A46002300240021002500F00046B6F1C3
:10335000004F02D1364EF16901E0354E7168C0F37D
:10336000034583B200F44016B6F5401F08D121F0A2
:1033700070612F4E766826F070662D4F7E6012E0E9
:1033800000F48016B6F5801F06D1032606FA05F470
:10339000A14341F0706106E0460D360103FA06F6DE
:1033A000B14341F0706122B1460D360103FA06F6D1
:1033B000314300F00046B6F1004F02D11C4EF161DE
:1033C00001E01B4E7160F0BD30B500228B071C0F71
:1033D0000F2303FA04F2164B08338C1053F82430F1
:1033E0009343134C08348D1044F8253023468C1039
:1033F00053F824308C07240F00FA04F423430C4CB8
:1034000008348D1044F8253030BD0A49DC3108609D
:103410007047000000080140000C0140001001400E
:103420000014014000180140001C01400020014030
:103430000000014000002042DF48006840F0010029
:10344000DD49086008464068DC490840DA494860C0
:1034500008460068DA490840D7490860084600680D
:1034600020F4802008600846406820F4FE00486090
:103470004FF41F0088607047CF49096821F48031FC
:10348000CD4A11601146096821F480211160B0F520
:10349000803F03D0B0F5802F0ED106E0C649096801
:1034A00041F48031C44A116007E0C349096841F41E
:1034B000A021C14A116000E000BF00BF704710B5F5
:1034C00001460022002300204A11012A02D1BA4CF1
:1034D000236806E0022A02D1B74C236A01E0B64C09
:1034E000636A01F01F02012494401C400CB10120CA
:1034F00000E0002010BD38B5002000900024002519
:1035000000BF3120FFF7DBFF05460098401C00900C
:103510000098B0F5A06F01D0002DF2D03120FFF758
:10352000CEFF08B1012400E00024204638BD01464A
:103530000020A14A106820F0F80040EAC1001060A5
:103540007047A04908607047024600209A4B5868AF
:1035500020F47C1042EA01031843974B58607047EF
:1035600098490866704701460020934A506820F049
:1035700003000843506070478F48406800F00C001B
:103580007047014600208C4A506820F0F000084344
:103590005060704701460020874A506820F4E06080
:1035A00008435060704701460020834A506820F469
:1035B000605040EAC1005060704729B17E4A527A9B
:1035C00002437D4B5A7204E07B4A527A82437A4B23
:1035D0005A7270477B49D831086070470146002015
:1035E000754A506820F440400843506070470021FD
:1035F000714A20321170704A82F82010012802D0DE
:1036000004280AD104E001216B4A2032117005E040
:103610000521694A2032117000E000BF00BF7047E9
:103620006949086070476449096A0143624A116246
:103630007047654944390860704730B50021002261
:10364000002400235C4D6D6805F00C0121B10429B4
:1036500005D0082923D105E05C4D056022E05B4DD3
:1036600005601FE0544D6D6805F47012524D6D6891
:1036700005F48034022505EB92421CB9544D5543A4
:1036800005600BE04C4D6D6805F400351DB1504DE3
:103690005543056002E04D4D5543056002E04B4D3A
:1036A000056000BF00BF444D6D6805F0F0010909D9
:1036B000484D6B5C0568DD4045603F4D6D6805F425
:1036C000E061090A434D6B5C4568DD4085603A4D19
:1036D0006D6805F46051C90A3E4D6B5C4568DD407C
:1036E000C560354D6D6805F44041890B3A4D6B5C02
:1036F000C568B5FBF3F5056130BD29B12E4A5269A5
:1037000002432D4B5A6104E02B4A526982432A4BF3
:103710005A61704729B1284A92690243264B9A613F
:1037200004E0254A92698243234B9A61704729B18C
:10373000214AD2690243204BDA6104E01E4AD26971
:1037400082431D4BDA61704729B11B4AD26802439C
:10375000194BDA6004E0184AD2688243164BDA60EB
:10376000704729B1144A12690243134B1A6104E0ED
:10377000114A12698243104B1A617047124940394D
:10378000086070470F49C86470470B49C87170479B
:103790000948406A40F08070074948627047014616
:1037A0000020054A92680A400AB1012000E000208A
:1037B0007047014988727047001002400000FFF80E
:1037C000FFFFF6FE000042428004424200127A00EF
:1037D00000093D00F80300200804002070477047EE
:1037E000704770477047000000487047980C0020F1
:1037F0007546FFF7F9FFAE4605006946534620F0CF
:103800000700854618B020B5FCF7F0FCBDE8204065
:103810004FF000064FF000074FF000084FF0000B8C
:1038200021F00701AC46ACE8C009ACE8C009ACE83F
:10383000C009ACE8C0098D4670470446AFF300806C
:103840002046FCF7BAFC490050EAC12018BF04200A
:103850004A0D18BF40F0010040F2FF72B2EB515F19
:1038600008BF40F00200012808BF052070472DE97D
:10387000F0414F1E00EBC7010446D1E90001154697
:103880001E4637F006020DD02A46334600F0BCFC37
:103890007F1E04EBC703D3E9002300F04DFA37F095
:1038A0000602F1D1022F25D0042F13D0062F18BF06
:1038B000BDE8F0812A46334600F0A6FCD4E90A238D
:1038C00000F03AFA2A46334600F09EFCD4E9082379
:1038D00000F032FA2A46334600F096FCD4E906237B
:1038E00000F02AFA2A46334600F08EFCD4E904237D
:1038F00000F022FA2A46334600F086FCD4E902237F
:1039000000F01AFA2A46334600F07EFCD4E9002380
:10391000BDE8F04100F010BA012201F046BA00F013
:103920000BBA0000024A0020110701F03EBA000065
:1039300001FDFFFF2DE9F84F04460D4621F0004040
:1039400000917349814211DC7249884201DC06D141
:103950002CB120462946BDE8F84FFFF7DDBF6E4881
:10396000002DCCBF6D496E49BDE8F88F6D4981428D
:1039700011DD6D498142D8BF4FF0FF366DDD204625
:103980002946FFF760FF042808BFFFF7CBFF20465A
:103990002946BDE8F88F6549654F25F0004581420D
:1039A00033DD6449814219DD002632464FF0804301
:1039B0002046294600F0C0F980468A46012220466A
:1039C000294601F0F2F900223B4600F05DFD424637
:1039D000534600F06DFA04460D463EE001260022F3
:1039E000BA463B462046294600F0A6F980460F46D7
:1039F000002253462046294600F046FD42463B46FB
:103A000000F056FA04460D4627E04B4981421BDD83
:103A1000DFF828A10226002253462046294600F05E
:103A2000F3FB00223B4600F087F980460F46002258
:103A300053462046294600F027FD42463B4600F00B
:103A400037FA04460D4608E0032622462B4600209E
:103A50003B4900F02DFA04460D4622462B461046FF
:103A6000194600F0D1FB8B46824602460B4600F019
:103A7000CBFB07460246334888460B46062178446E
:103A8000FFF7F5FE52465B4600F0BEFB82462E482D
:103A90008B463A46434605217844FFF7E8FE3A460E
:103AA000434600F0B1FB02460B46002E50465946F5
:103AB0000CDA00F041F922462B4600F0A5FB01B0DC
:103AC00022462B46BDE8F04F00F0D2BC00F034F99E
:103AD00022462B4600F098FB1C4A7A4402EBC603B0
:103AE000D3E9002300F0D0FC22462B4600F0CCFCAA
:103AF000174A7A4402EBC603D3E9002300F0B8FC6E
:103B0000009A002AB8BF81F00041BDE8F88F00009C
:103B1000000010440000F07F182D4454FB21F93FB1
:103B2000FB21F9BF0000DC3F0000203E0000F33F16
:103B30000000F03F0000E63F008003400000F83F37
:103B40000000F0BF361C0000F41B0000921B0000B8
:103B50005A1B00002DE9F04D9446CCF1000423F0EF
:103B600000464CEA0404524F46EAD4749A4688460A
:103B700021F00042BC4206D8454240EA050442EA30
:103B8000D474BC4204D9BDE8F04D6246FFF7C7BE0D
:103B9000AAF14055A5F17F6555EA0C040BD002242B
:103BA00004EAAA74434DDFF810E144EAD87452EAFB
:103BB000000B04D00CE0BDE8F04DFFF7BBBE002CBD
:103BC00014BF012CBDE8F08D022C30D0032C32D074
:103BD00056EA0C0B0AD0BE4220D1BA4209D126F0D7
:103BE000804622F080423346114617E000291ADB56
:103BF00025E0DFF8C8B0FB44002C04BFDBE900017E
:103C0000BDE8F08D012C02BFDBE9000181F000412D
:103C1000BDE8F08D022C0AD0032C0CD0BA4212D190
:103C2000B8F1000F0BDA23482549BDE8F08D28468E
:103C30002449BDE8F08D28467146BDE8F08D1D4849
:103C40002149BDE8F08D921B12153C2AC4BF1948CA
:103C50001D490EDCBAF1000FBEBF12F13C0F00206F
:103C6000014606DB624600F023F921F00041FFF730
:103C700061FE002C08BFBDE8F08D012C04BF81F06F
:103C80000041BDE8F08D114A114B022C07D000F025
:103C9000FBFB2A46BDE8F04D0A4B00F0F5BB00F0F7
:103CA000F3FB2A46BDE8F04D064B00F0E1BB0000F7
:103CB0000000F07F182D4454FB2109C0EE1A0000CB
:103CC000FB21F9BFFB210940FB21F93F075C1433BD
:103CD00026A6A13C21F00042A2F16052B2F5801F5D
:103CE00001F0004328BFD2F17F6C0BD95FEA001CC2
:103CF00043EAC20242EB507018BF704728BF20F061
:103D000001007047B2F5801FBCBF184670474FEAEC
:103D1000410C1CF5001F02D2084600F05EBF70B5D2
:103D200000F01CFB00000089FFF7F6BF4FF00040D9
:103D3000A0F580007047000010B591EA030F48BF5E
:103D400083F0004300F1A883841A71EB030C05D2C1
:103D5000121943EB0C03001B61EB0C01DFF824E1AB
:103D60004FEA1154A4EB135C1EEA430F18BF9EEAFE
:103D7000445F73D023EA0E03DCF1200E21EA0451E4
:103D800043F4801332D322FA0CFE10EB0E0023FA18
:103D90000CFE41EB0E01CCF1200E03FA0EFE10EBEF
:103DA0000E0051F10001B1F5801FCCF1200E32D28E
:103DB00001EB045112FA0EF2BDE8104058BF7047F3
:103DC000401C38BF5FEA420218BF7047002814BF8A
:103DD00020F0010041F100014FEA410313F5001FFB
:103DE00038BF7047A1F1C04100F006BB012A43EB88
:103DF0000302ACF1200CDCF11F0E32BF4FF0000EBD
:103E000023FA0CF310EB030041EB0451B4EB115F08
:103E1000D0D0A1EB045101F5801149085FEA3000D0
:103E200001EB04510ED350F1000038BF12FA0EFE20
:103E300008D1BDE81040C9E7401C38BF5FEA420224
:103E4000CAD1C3E7BDE810404FEA410313F5001F94
:103E500038BF7047A1F1C04100F0CEBA9EEA445F7E
:103E600008D011EA5E0FBDE8104004BF01F0004128
:103E700000207047BDE8104070B500F06FFA00BF39
:103E800064FBBE3E0000E0FF02494FF0000000F07E
:103E90005ABF00BF0000F87F491058BFC1F1404130
:103EA0005B1058BFC3F140438B42EFF30080704773
:103EB0002DE9C04130B4DFF8A0C23CEA111418BFAC
:103EC0003CEA131400F0EC8081EA03051CEA1114AB
:103ED00044EAD57418BF1CEA131500F0C780A4EBA0
:103EE00005044FF0004545EAC12145EAC32341EAF4
:103EF000505143EA525304F17F74994204F500345F
:103F00004FEAC0204FEAC22208BF904200F09C80D6
:103F10004FEA13650FF24016765D4FEA134506FB34
:103F200005F7C7F1807706FB07F74FEAD737A7FBFE
:103F300003687642C8F58038A7FB06CE38BFA8F1E3
:103F4000010807FB08E64FF0000EA6FB028CE6FB1B
:103F500003CEDCF1000CCEF1004E38BFAEF1010E05
:103F6000A6FB0C584FF000074FF00005E6FB0E874C
:103F7000A1FB08C6A0FB07CE16EB0E0645F1000517
:103F8000E1FB076515F1E04E7EBFA4F580345FEAE2
:103F900046066D4116F1800745F100054FEA1727E7
:103FA0004FEA066647EA0567A6F1DE46B6F1805F8E
:103FB0004FEA15251FD9384624F0010C05EBC471D2
:103FC000BCF1FE6F01EB0C1102D8F0BCBDE8008122
:103FD00024425CBF01F5801E9EEAC47F02D4F0BC7F
:103FE000BDE80081244238D4F0BCA1F1C041BDE855
:103FF000004100F001BA4FEAD22242EA43524FEAAE
:10400000D323A7FB02864FEAD02040EA415007FBAA
:1040100003661EEA0E0F4FEAD12105FB026658BF68
:10402000A6EB0056B6EB00564FEA520E4EEAC37EA0
:1040300018EB0E0E56EB530EBDD518EB02085E4181
:104040007F1C55F10005B6E74FF480154FF00007CF
:104050004FF000064FF00008ADE7F0BC4FF0000055
:1040600001F1C04101F00041BDE8008111EA0C1FDF
:104070000CEA131500D00CE013EA0C1F00F02580A9
:104080004FF00000F0BC81EA030101F00041BDE8FF
:104090000081F0BCBDE8004181EA030100F0ACB949
:1040A000F0BCBDE8004170B500F058F9097EFC3E57
:1040B00000F007B881EA03014FF0000001F0004171
:1040C000704781EA030100F097B9F0BCBDE80041F8
:1040D0004FF0000021497047FFFDFBF9F7F5F4F2BE
:1040E000F0EEEDEBE9E8E6E4E3E1E0DEDDDBDAD893
:1040F000D7D5D4D3D1D0CFCDCCCBCAC8C7C6C5C4F1
:10410000C2C1C0BFBEBDBCBBBAB9B8B7B6B5B4B307
:10411000B2B1B0AFAEADACABAAA9A8A8A7A6A5A4F2
:10412000A3A3A2A1A09F9F9E9D9C9C9B9A999998B6
:104130009797969595949393929191908F8F8E8E59
:104140008D8C8C8B8B8A89898888878786858584E6
:1041500084838382828181800000FF070000F87FD2
:1041600010F0004248BF4042B0FA80F310FA03F169
:104170000AD0C3F11D0303F580634FEA415002EBFF
:10418000035202EBD12170474FF00000704700004E
:1041900051EA030C17D41CF5801F58BFBCF5801FD3
:1041A00000F10680994218BF704708BF90427047DF
:1041B00007D711F5801F58BF13F5801F19D49942F6
:1041C0007047894270471CF5801F08D5BCF5801FD9
:1041D000F7D58B4218BF704708BF824270474FF433
:1041E000001C1CEB410F38BF1CEB430F01D28B426C
:1041F000704770B500F0B2F8922449004FF00051BA
:104200004FF08053FFF748BEDFF848C170B51CEA95
:10421000111E1EBF1CEA13159EEA0C0F95EA0C0F27
:1042200000F06F8081EA030423EA4C134EEAD47E47
:1042300021EA4C1141F4801143F48013AE44A1FBF8
:10424000024CA0FB0365AEF17F7E361955EB0C05E1
:10425000A1FB034C4CF10003A0FB021C16EB0C0667
:10426000654153F10003094218BF46F0010613F4FB
:10427000007F0BD14FEA03314FEA0530340341EAA6
:10428000155140EA16506FF003020AE04FEAC321CD
:104290004FEAC520F40241EA555140EA56506FF00A
:1042A000020202EB2E4201EB025585EACE710AD0E2
:1042B0005FEA440C18BF24F0004450F1000041F1C3
:1042C000000120EAD47040F2FE7C624500D270BD4D
:1042D000A84214BF4FF080444FF04044002E08BF66
:1042E0000024BEF1806FA8BFA1F1C041BDE87040BD
:1042F00080F282804FF0000001F1C04101F00041E6
:1043000070479EEA0C0F0CEA131518BF95EA0C0FC4
:1043100006D04FF0000081EA030E0EF0004170BDA0
:1043200000F01CF88900013E00F007B800F009B861
:104330004FEA430C5FEA5C5C08D081EA030100F0BD
:104340005BB84FEA410C5FEA5C5CF6D14FF00000CD
:10435000014970470000FF070000F87F0EF1020ED0
:104360002EF0030E5EF8046B364205D4012A43EBAF
:10437000030515F5001F12D8012841EB010C1CF5AF
:10438000001F0CD80ED14FEAD17C15F5001F0CEBA5
:104390004C0C0CF1020C08BF4CEBD37C04E04FF04A
:1043A000080C01E04FEAD37C0CEB4C0526FA05F62D
:1043B00006F00706B6F1040C06D20EEB860CBDE83B
:1043C00070404CF0010C6047DFE80CF0090B020272
:1043D0004FF000414FF00000A1F5002170BD1946DB
:1043E0001046012851EB010418BFD4F5001484BF16
:1043F000002001F0004170BD0808A0F500114FEA4F
:104400003101704753EA010C17D41CF5801F58BFC7
:10441000BCF5801F00F106808B4218BF704708BFB3
:104420008242704707D713F5801F58BF11F5801FD0
:1044300019D48B4270479B4270471CF5801F08D5EA
:10444000BCF5801FF7D5994218BF704708BF90424E
:1044500070474FF4001C1CEB430F38BF1CEB410F9F
:1044600001D2994270470FB40CBC03BCFFF7C1BE28
:1044700091EA030F10B581F000413FF565AC83F080
:10448000004300F009B8000010B591EA030F48BFDF
:1044900083F000433FF558AC841A71EB030C07D24C
:1044A00012198CF0004C43EB0C03001B61EB0C0168
:1044B000DFF8A4E14FEA1154A4EB135C1EEA430FAA
:1044C00018BF9EEA445F00F0B08023EA6E035242B8
:1044D00021EA0451C3EB6E0338BF5B1EDCF1200EF2
:1044E00025D322FA0CFE10EB0E0043FA0CFE41EB32
:1044F0000E01CCF1200E03FA0EFE10EB0E0051F16E
:104500000001CCF1200E29D412FA0EF201EB045175
:10451000BDE8104058BF7047401C1CBFB2F1004FAF
:10452000704700280CBF491C20F00100704712EBB7
:10453000020E43EB030218BF4FF0010E4EEA420297
:10454000ACF1200CDCF11E0E54D943FA0CFE10EB3A
:104550000E0051F1FF31CCF11E0ED5D50EF1010E3A
:1045600012FA0EFE404141EB010101EB445C5FEAAF
:104570005C5C10D910EBDE7001EB045138BFBEF16A
:10458000004FBDE8104018BF704700280CBF491C01
:1045900020F00100704730D24FEAD42C11F5001101
:1045A00024F400641BD0B1FA81F20B3AA41AA41EC1
:1045B000D2F12003914030FA03F31943904001EB0C
:1045C000CC71002C01EB0451BDE81040A8BF70472E
:1045D00001F1C0414FF0000001F000417047B0FA16
:1045E00080F310FA03F100D110BDE41A173C48051E
:1045F000C90AE4E701EB045110BD491001EB045175
:10460000BDE810404FEA300002E04FF00001704773
:104610004A0008BF0042F8D0B2F5001F28BF70471B
:1046200001F000414FF0000070479EEA445F07D060
:1046300011EA5E0FBDE8104004BF00210020704762
:10464000BDE8104070B5FFF789FE00BF40DFF63EC1
:1046500083F00041104670470000E0FF43004FEA3E
:10466000D30C4FEA3C0C43401FBF40070CF1605194
:1046700013F0FE4F70471CF0006F03D100200CF0C8
:10468000004170470CF0004343EA507010B540EA17
:10469000CC0000F05CFA00BF000000924FEA00017D
:1046A000FFF7AABE4FF000414FF00000A1F5002136
:1046B0007047000090EA010F48BF81F0004100F10F
:1046C000D482421A3CBF801A89184FEAD0524FF068
:1046D0007F4C1CEA410FA2EBD15318BF9CEA026F3A
:1046E00000F03B804FF0004C4CEA00204CEA0121E6
:1046F00021FA03FC10EB0C0C1ED202F1FF325FEA30
:104700001C2040EBC25038BF70471CF07F0F4FEAAF
:10471000400C18BFBCF17F4F38BF7047C3F1200376
:10472000994008BF20F00100BCF17F4F38BF7047AF
:10473000A0F1C04000F051BA4FEA3C00000A40EB43
:10474000C25028BF1CF0FF0F4FEA400CE6D018BF44
:10475000BCF17F4F38BF7047EAE79CEA026F05D093
:1047600010EA5C0F08BF00F00040704710B500F081
:10477000EEF900BF64FBBE3E401058BFC0F14040A0
:10478000491058BFC1F140418142EFF300807047AA
:104790004FF47F0C1CEAD0121EBF1CEAD11392EA20
:1047A0000C0F93EA0C0F00F0858090EA010F48BFD0
:1047B00042F4807240F4000C41F400002CF07F4180
:1047C00020F07F4000B58142A2EB03020FF2081CEB
:1047D000ACEB504EC0F100009EF800E04FEA4E0EE8
:1047E00000FB0EFC38BF49004FEA2C1C02F5FA0210
:1047F0000CFB0EF34FEACE1E4FEA112C4FEAC121FB
:104800000EEB635E42EB22420EFB0CFC4FEA1C53A4
:1048100000FB03114FEA112C4FEA01310EFB0CFC97
:104820004FEADC4C00FB0C11C14228BF09184CEBCD
:1048300003335DF804EB10EB410143EBC250B2F5DA
:104840007C0F38BF704729D512F0F00F1CBF00F164
:10485000C04000F0004070470081828384858687D5
:1048600088898B8C8D8E8F919293959697999A9C2F
:104870009D9FA0A2A3A5A7A8AAACAEB0B2B3B5B79E
:10488000B9BCBEC0C2C5C7C9CCCED1D4D7D9DCDF74
:10489000E2E6E9ECF0F3F7FAFE0000004FEA400C24
:1048A0000CF1807CBCF17E4F28BF7047B0F1C04056
:1048B00000F093B990EA010F0CEAD11348BF42F41B
:1048C0008072624538BF634507D213F47F0F16D05C
:1048D00080EA010000F00040704710B500F037F9A1
:1048E000097EFC3E00F005B880EA010000F00040BF
:1048F000704780EA010000F0004000F06EB912F449
:104900007F0F04BF0248704780EA010000F065B9DC
:104910000000C07F41000B0ED3F19E0208D950F475
:1049200000034FEA032323FA02F048BF40427047D6
:1049300010B500F00CF900BF4992248000207047A8
:104940006FF0004282EA200070470000C10DD1F1F3
:104950009E0206DB4FEA002343F0004323FA02F0F5
:104960007047004207D54FEA4001B1F1FE4F02D235
:104970004FF00000704710B500F0E9F8499224802C
:10498000002070476FEA20007047000010F00041DF
:1049900048BF4042B0FA80F310FA03F2C3F19D031E
:1049A0000BD051EAC35101EB1220530638BF7047B8
:1049B00000F1010008BF20F001007047B0FA80F359
:1049C00010FA03F2C3F19D030AD0D90501EB1220BE
:1049D000530638BF704700F1010008BF20F0010006
:1049E0007047000050EA010C00F113801CF5000F25
:1049F00058BFBCF5000F01D48842704707D710F5A7
:104A0000000F58BF11F5000F15D488427047894236
:104A100070471CF5000F04D5BCF5000FF7D5814297
:104A200070474FF0807C1CEB400F38BF1CEB410FF0
:104A300001D28142704710B500F089F892244900F4
:104A40004FF000504FF08051FFF796BE4FF47F0CAF
:104A50001CEAD0121EBF1CEAD11392EA0C0F93EA93
:104A60000C0F00F0478090EA010F48BF42F48072BB
:104A70004FF0004C4CEA00204CEA012102EB03020B
:104A8000A0FB0113A2F50002002918BF43F00103A7
:104A90005B0028BF4FEA330342EB22425FEA132C4C
:104AA0004CEBC2502EBFBCEB436FB2F57C0F70478E
:104AB0004FEA036CBCF1004F08BF20F00100B2F5D3
:104AC0007C0F38BF70470BD582F0FF0212F5803F94
:104AD000C8BF704700F1C040D8BF00F00040704729
:104AE00000F5000C5FEA4C0C48BF7047B0F1C040C5
:104AF00000F073B890EA010F0CEAD11348BF42F4FA
:104B00008072624538BF634504D280EA010000F03C
:104B10000040704710B500F01AF800BF8900013E50
:104B200000F007B800F009B85FEA410C5FEA1C6CBE
:104B300008D080EA010000F050B85FEA400C5FEA5C
:104B40001C6CF6D14FF00040A0F5800070470EF1CC
:104B5000020E2EF0030E5EF8044B244204D44FEAFA
:104B60004102B2F17F4F11D84FEA4003B3F17F4FBA
:104B70000CD80ED14FEAD07CB2F17F4F0CEB4C0C2D
:104B80000CF1020C08BF4CEBD17C04E04FF0080C98
:104B900001E04FEAD17C0CEB4C0324FA03F404F05F
:104BA0000704B4F1040C06D20EEB840CBDE81040EF
:104BB0004CF0010C6047DFE80CF0070802024FF0F0
:104BC0000040A0F5800010BD0846420018BFD2F199
:104BD000807288BF00F0004010BDFF2141EAD05034
:104BE000C005704751EA000C00F113801CF5000F5E
:104BF00058BFBCF5000F01D48142704707D711F5AB
:104C0000000F58BF10F5000F15D48142704789423C
:104C100070471CF5000F04D5BCF5000FF7D588428E
:104C200070474FF0807C1CEB410F38BF1CEB400FEE
:104C300001D28842704780EA010081EA000180EADF
:104C40000100FFF7F8BE80F0004090EA010F7FF509
:104C500038AD81F0004100F008B8000090EA010F83
:104C600048BF81F000413FF52CAD421A04D882F0D4
:104C70000042A0EB020011444FEAD0524FF07F4CAB
:104C80001CEA410FA2EBD15318BF9CEA026F4AD035
:104C90004FF0004C4CEA00204CEA012121FA03FCC1
:104CA000B0EB0C0C0FD412F0FE0F36D05FEA4C00C4
:104CB0001DD5001240EBC25038BF70471CF03F0FAB
:104CC00018BF70470BE0A2F101025FEA1C2040EB25
:104CD000C25038BF70471CF07F0F18BF7047C3F138
:104CE0002003994014BF401E20F001007047800847
:104CF0004FEA122308BF7047B0FA80FCA2EB0C0207
:104D0000CCF1280C60FA0CF093EA122F04BF00EBF0
:104D1000C25070474FEAC3707047130A5FEADC1055
:104D200008BF7047F6E79CEA026F04D010EA5C0FF8
:104D300008BF0020704710B5FFF709FF40DFF63EBF
:104D400081F0004070470CF00F03092B08BF0820CA
:104D500000F059800A2B0BD0082B18BF704708BFF2
:104D60001CF0400F0AD04FF000004FF000017047D8
:104D70001CF0400F18BF4FF0004070471CF0100FA0
:104D800008D020F0704300F07F4242EAD3014FEA9E
:104D90004370704700F0604021F07F4242EA000219
:104DA00001F07F4040EA727070474FF0FF0C4CF406
:104DB000E06C1CEA11531CBF9CEA030C9445C2BF73
:104DC000DA4201EB02517047002B0DD0BCF1000F0D
:104DD0000FD0002A01F00041A4BF41F0E04141F0B2
:104DE0007F614FF00000704701F000414FF000007C
:104DF000704750EA01334FF09B0C18BF4CF0806CA9
:104E00007FF442A870471CF4801F11D01CF4E02FDF
:104E100003D06FEACC31490070474FF04050EFF3B8
:104E2000008222F0704242EA000282F3008870475A
:104E30004FF0000070470000000000000000002F4D
:104E4000000000000700070000147F147F140024F6
:104E50002A7F2A1200626408132300364955225023
:104E600000000503000000001C2241000000412258
:104E70001C000014083E08140008083E0808000042
:104E800000A060000008080808080000606000003A
:104E9000002010080402003E5149453E0000427FB8
:104EA0004000004261514946002141454B31001804
:104EB00014127F10002745454539003C4A494930C6
:104EC0000001710905030036494949360006494980
:104ED000291E00003636000000005636000000088B
:104EE0001422410000141414141400004122140868
:104EF00000020151090600324959513E007C12114D
:104F0000127C007F49494936003E41414122007FE1
:104F10004141221C007F49494941007F090909019B
:104F2000003E4149497A007F0808087F0000417F20
:104F30004100002040413F01007F08142241007FD2
:104F400040404040007F020C027F007F0408107F39
:104F5000003E4141413E007F09090906003E4151A2
:104F6000215E007F0919294600464949493100015F
:104F7000017F0101003F4040403F001F2040201FB3
:104F8000003F4038403F0063140814630007087076
:104F9000080700615149454300007F414100005529
:104FA0002A552A55000041417F00000402010204F5
:104FB00000404040404000000102040000205454E2
:104FC0005478007F48444438003844444420003832
:104FD0004444487F00385454541800087E090102A4
:104FE0000018A4A4A47C007F080404780000447D79
:104FF0004000004080847D00007F102844000000B5
:10500000417F4000007C04180478007C0804047888
:1050100000384444443800FC242424180018242474
:1050200018FC007C08040408004854545420000470
:105030003F444020003C4040207C001C2040201C7D
:10504000003C4030403C004428102844001CA0A0F4
:10505000A07C004464544C44141414141414000030
:105060000000000000000000000000000000000040
:1050700000F80000000000000033300000000010C5
:105080000C06100C0600000000000000000040C0EC
:105090007840C0784000043F04043F0404000070DE
:1050A00088FC08300000001820FF211E0000F008D6
:1050B000F000E018000000211C031E211E0000F07B
:1050C0000888700000001E212324192721101016C3
:1050D0000E000000000000000000000000000000C2
:1050E00000E0180402000000000718204000000241
:1050F0000418E000000000402018070000004040B5
:1051000080F0804040000202010F01020200000016
:1051100000F0000000000101011F0101010000007A
:1051200000000000000080B07000000000000000DF
:105130000000000000000001010101010101000068
:1051400000000000000000303000000000000000FF
:10515000000080601804006018060100000000E0F4
:1051600010080810E000000F102020100F000010A1
:1051700010F8000000000020203F202000000070F8
:1051800008080888700000302824222130000030F0
:105190000888884830000018202020110E000000E8
:1051A000C02010F8000000070424243F240000F869
:1051B0000888880808000019212020110E0000E04E
:1051C000108888180000000F112020110E000038F0
:1051D0000808C83808000000003F00000000007008
:1051E000880808887000001C222121221C0000E091
:1051F00010080810E0000000312222110F0000000A
:1052000000C0C000000000000030300000000000BE
:10521000008000000000000080600000000000002E
:1052200080402010080000010204081020004040C7
:10523000404040404000040404040404040000080A
:1052400010204080000000201008040201000070BF
:1052500048080808F0000000003036010000C030A7
:10526000C828E810E0000718272423140B000000CA
:10527000C038E0000000203C23020227382008F854
:10528000888888700000203F202020110E00C03048
:10529000080808083800071820202010080008F81F
:1052A00008080810E000203F202020100F0008F818
:1052B0008888E8081000203F20202320180008F8E4
:1052C0008888E8081000203F200003000000C0305C
:1052D00008080838000007182020221E020008F8DD
:1052E00008000008F808203F210101213F200008A4
:1052F00008F8080800000020203F202000000000DF
:105300000808F8080800C08080807F00000008F8C6
:1053100088C028180800203F20012638200008F8FF
:10532000080000000000203F20202020300008F866
:10533000F800F8F80800203F003F003F200008F880
:1053400030C00008F808203F200007183F00E01098
:1053500008080810E0000F10202020100F0008F8A7
:1053600008080808F000203F210101010000E010BA
:1053700008080810E0000F18242438504F0008F8DF
:10538000888888887000203F2000030C302000703F
:105390008808080838000038202121221C0018083D
:1053A00008F8080818000000203F2000000008F856
:1053B00008000008F808001F202020201F0008789F
:1053C000880000C83808000007380E010000F808FF
:1053D00000F80008F800033C0700073C0300081829
:1053E00068808068180820302C03032C302008388F
:1053F000C800C83808000000203F20000000100846
:105400000808C8380800203826212020180000008D
:1054100000FE020202000000007F40404000000C3D
:1054200030C000000000000000010638C00000028B
:105430000202FE000000004040407F00000000002B
:10544000040202020400000000000000000000004E
:10545000000000000000808080808080808000024A
:105460000204000000000000000000000000000036
:105470008080808000000019242222223F2008F82A
:10548000008080000000003F112020110E0000006D
:10549000008080800000000E1120202011000000FC
:1054A00000808088F800000E112020103F200000AE
:1054B000808080800000001F2222222213000080B2
:1054C00080F0888888180020203F202000000000FD
:1054D000808080808000006B94949493600008F832
:1054E000008080800000203F210000203F200080BD
:1054F0009898000000000020203F202000000000BD
:1055000000809898000000C08080807F000008F82C
:10551000000080808000203F24022D302000000801
:1055200008F8000000000020203F202000008080BC
:10553000808080808000203F20003F20003F8080CE
:10554000008080800000203F210000203F200000DC
:10555000808080800000001F202020201F0080808D
:1055600000808000000080FFA12020110E000000BC
:10557000008080808000000E112020A0FF808080AD
:1055800080008080800020203F212000010000005A
:10559000808080808000003324242424190000802F
:1055A00080E0808000000000001F2020000080803C
:1055B000000000808000001F202020103F208080FD
:1055C00080000080808000010E300806010080808D
:1055D0000080008080800F300C030C300F000080B2
:1055E0008000808080000020312E0E3120008080DD
:1055F00080000080808080818E701806010000800D
:105600008080808080000021302C2221300000002A
:105610000000807C020200000000003F40400000CB
:105620000000FF00000000000000FF00000000027A
:10563000027C800000000040403F000000000006A7
:10564000010102020404000000000000000000004C
:105650004FBB610567ACDD3F182D4454FB21E93F8A
:105660009BF681D20B73EF3F182D4454FB21F93F79
:10567000E2652F227F2B7A3C075C143326A6813CFF
:10568000BDCBF07A8807703C075C143326A6913CAA
:10569000C4EB98999999C9BF711623FEC671BCBF16
:1056A0006D9A74AFF2B0B3BF9AFDDE522DDEADBF7E
:1056B0002F6C6A2C44B4A2BF0D5555555555D53F96
:1056C000FF8300922449C23F6E204CC5CD45B73FB1
:1056D000513DD0A0660DB13FEB0D76244B7BA93F29
:1056E00011DA22E33AAD903F000000000000000014
:1056F00010570008000000200C04000028010008DA
:10570000985800080C040020EC0E000084010008EA
:10571000011A1BF010012AFF050215F01B0F0401EE
:105720002AFF0502130F18094040405F5555557573
:10573000041A5F0C091121080C11200F09498979FD
:105740000909090F201F112FFE02424ACA4A030409
:10575000134202FE000E14FF40504C4340404F5095
:10576000505C40FF1BF888012AFF050215F81B1F3B
:1057700008012A7F200B109F80E23B8082010009F4
:1057800016E2A2928A86828080041840807F1724C5
:1057900024A4FEA3221B22CCAA011415080601FF93
:1057A0002B0104010511FF0202025808101010FF1E
:1057B000109008C3021108080F100444827F018072
:1057C0008040432C10284681A01809404048484892
:1057D000C8784F06051548484040000915031212C5
:1057E0002222528A063C106080BA19040B11C03084
:1057F000FB1E404043407F061C7F424106094FC0CC
:105800002941080B1110D030FF30D0121C10101F8E
:105810003D080402019E0D1101020408211116FE2B
:10582000222222FE0712FE828292A29E100880602F
:105830001F0242827F0F11FF402F102C4380110066
:105840000B1490884C57A42454548C8418080101DC
:105850008042221A07441D423E01018AF9E1000DEF
:1058600014E4242CB4252624B42C24E404180AFFC0
:1058700002011E1212121E41860116456666E63EA0
:105880000554CDCCB1422D010203040400090006E9
:085890000708090204060800E4
:04000005080000ED02
:00000001FF
