:020000040000fa
:080000000002040000000000f2
:020000040000fa
:100008006a030000700300007c030000dcba0000f3
:10001800760300007c0300007c0300007c030000e2
:100028007c0300007c0300007c030000cc0300007c
:100038007c0300007c0300007c030000aeba0000d3
:10004800a80d0000c80c00005c0c00001c0c00008f
:10005800dc0b00007c0300007c0300007c03000034
:100068007c0300007c0300007c0300008003000088
:10007800aa0300007c0300007c0300007c0300004e
:100088007c0300007c0300007c0300007c0300006c
:100098007c030000e20300003c0c0000fc0b0000a5
:1000a800f40c0000920c00007c0300007c030000ac
:1000b8007c0300007c0300007c0300007c0300003c
:1000c8007c0300007c0300007c0300007c0300002c
:1000d8007c0300007c0300007c0300007c0300001c
:1000e8007c0300007c0300007c0300007c0300000c
:1000f8007c0300007c0300007c0300007c030000fc
:100108007c0300007c0300007c0300007c030000eb
:100118007c0300007c0300007c0300007c030000db
:100128007c0300007c0300007c0300007c030000cb
:100138007c0300007c0300007c0300007c030000bb
:100148007c0300007c0300007c0300007c030000ab
:100158007c0300007c0300007c0300007c0300009b
:100168007c0300007c0300007c0300007c0300008b
:100178007c0300007c0300007c0300007c0300007b
:100188007c0300007c0300007c0300007c0300006b
:100198007c0300007c0300007c0300007c0300005b
:1001a8007c0300007c0300007c0300007c0300004b
:1001b8007c0300007c0300007c0300007c0300003b
:1001c8007c0300007c0300007c0300007c0300002b
:1001d8007c0300007c0300007c0300007c0300001b
:1001e8007c0300007c0300007c0300007c0300000b
:1001f8007c0300007c0300007c0300007c030000fb
:100208007c0300007c0300007c0300007c030000ea
:100218007c0300007c0300007c0300007c030000da
:100228007c0300007c0300007c0300007c030000ca
:100238007c0300007c0300007c0300007c030000ba
:100248007c0300007c0300007c0300007c030000aa
:100258007c0300007c0300007c0300007c0300009a
:100268007c0300007c0300007c0300007c0300008a
:0c0278007c0300007c0300007c030000fd
:020000040000fa
:10040000cf4a21000eff24000e01880000000000ea
:10041000000020000000e000020032000001200087
:10042000200288000c00070060f92b00010020006a
:100430000f000700000020000000e0000200320072
:1004400000000200000000001cc6020000000000c6
:100450000040da000000fe00e01b20000000e00089
:1004600002003200002020009001880000000600f9
:10047000a1028800800078000000eb001a0037001d
:10048000e280400054a0b4009101ba00e280400034
:1004900054a0b4009102ba00e280400054a0b4001d
:1004a0000002eb00472bde00f507b200a601880032
:1004b000602ce10008003a000049eb000201e8006e
:1004c000020039003420ec0002f0a0008301e900b2
:1004d000f9ff3e00040037006128e100010032000e
:1004e0000082eb00040007001101ba000200e000e6
:1004f000e3ff3a000000060004d0a300e20f490029
:100500001c003900810278003549ba000201e80078
:10051000020039003420ec0002f0a0008301e90061
:100520000f0032002549ba000201e800020039003c
:100530003420ec0002f0a0008301e9000800320042
:100540000400e0000600320015c9ba000201e8000c
:10055000020039003420ec0002f0a0008301e90021
:100560008180e80054a0b4000300e000e2ff3a00fc
:10057000000006009102ba00055978008301e900e5
:10058000f7ff3200c82ade00055978008301e90030
:10059000f3ff32000400e000f1ff320011d9ba008d
:1005a000eeff3700ee6b040000000000f45404007e
:1005b00000000000d822040000000000a076040023
:1005c0000000000068c50400000000007c5c04001e
:1005d00000000000583b0400000000001007040069
:1005e00000000000ee0804000000000010090400f4
:1005f00000000000d27b040000000000a07b04008b
:1006000000000000267b040000000000487b04007e
:10061000000000000c7b0400000000006a5704008a
:100620000000000030570400000000000c5a0400d5
:1006300000000000f656040000000000d05904003d
:1006400000000000945904000000000078590400e4
:1006500000000000ee910400000000007e91040004
:100660000000000008910400000000001e73040058
:1006700000000000cc72040000000000186e0400ae
:1006800000000000026e04000000000004cc040022
:1006900000000000d6a304000000000064a30400d2
:1006a0000000000090a3040000000000c6bb04008e
:1006b00000000000d8b70400000000009ab7040052
:1006c00000000000404804000000000004bb0400db
:1006d000000000000000fa00c028a900ffff37005a
:1006e0000000fa00c068a900ffff37000000fa0010
:1006f000c088a900ffff37000000fa00ffff3700a5
:100700003600f800809fbe00829fbe00849fbe001e
:10071000869fbe000000fa000268a90010708000e9
:10072000680060000000e00003003200e0a38000e9
:10073000329b0200000000000080fa004f03be0060
:100740004f02be004f01be004f00be003600f90050
:10075000004006003600f800809fbe00829fbe0069
:10076000849fbe00869fbe000000fa000288a90098
:10077000f0a38000329b0200000000000080fa001d
:100780004f03be004f02be004f01be004f00be002f
:100790003600f90000400600801f78000000fa00d3
:1007a0000068a9000000eb00f0a088000000eb004a
:1007b000e0a088002068a9000080fa004f007800bf
:1007c000004006003600f800809fbe00829fbe00f9
:1007d000849fbe00869fbe000c00fa0003a8a900fb
:1007e000e1a08000210798000108800031079800ef
:1007f000e0a08000be009000008050008000eb0070
:10080000008fbe00be009000e1a088003e00900076
:10081000e10f5000040032003e0090000000e900ab
:1008200010088800020037000080eb0010088800e4
:10083000f0a080000000e00006003a002e009000ca
:100840000000e00003003a000068a9002068a8004a
:1008500038003700200880004400de00634060005c
:100860000080fb00e20f50000c003200e30f50004c
:1008700003003200e10f50000f0032001500370076
:100880001e01be004818dd00c810de0081007000a7
:100890004810dd00008fbe000e0037001e01be00b4
:1008a0004618dd00ca10de00810070004610dd0031
:1008b000008fbe00070037001e01be004318dd0098
:1008c000cd10de00810070004310dd00008fbe00ff
:1008d000000000001e01be004318dd00cd10de0048
:1008e000810070004310dd000001be0000982f0061
:1008f00001e62800001202000000000040079800f6
:10090000510798004e019000de01900070382100e0
:1009100001002000800f5100818f590005003e002a
:100920004e009000f0a0880000a180000000e800c8
:1009300000a188000080fa004f03be004f02be00f5
:100940004f01be004f00be003600f9000040060017
:100950000200fa00490107004202070000322000ad
:1009600050a0880000ba2700f125200030a08800a0
:1009700041a08800e040210041c1b3000148780057
:10098000f040210001c1b3000148780020002000a0
:1009900060a0880060402100b8c102000000000093
:1009a000000f78001e0078000000e0000100320017
:1009b000ffff3700007120005ac202000000000053
:1009c0001000200080cc020000000000f0020700b0
:1009d0000000eb000080fa00000006000200fa00b0
:1009e000000f780010c0b3009e0078000100e00006
:1009f00001003c000040eb000080fb006100600053
:100a00004c00dd00a2708000f1ff2e00810061002b
:100a100001007000a07088000080fa00000006004d
:100a20000200fa00000f780010c0b3009e007800aa
:100a30000100e000010034000040eb000080fb00fa
:100a4000610060004b00dd00a2708000f17f2f008c
:100a50008100610001007000a07088000080fa0031
:100a6000000006000200fa00000f780063eca90005
:100a700010c0b3009e0078000100e00001003c00bf
:100a80000040eb000080fb00610060004a00dd00d8
:100a9000a2708000f1bf2f00810061000100700092
:100aa000a07088000080fa00000006000600fa002e
:100ab00020079800406380006101b8002e0090007c
:100ac000cf80de00809ab900828bb9008602780060
:100ad000050242000010b8000102420084007800c4
:100ae000f2ff2f00030020000010020000000000b1
:100af000008fbe00406380000000d1008000eb004a
:100b00001e0f40005e9748001e007800306388008a
:100b100063eca8000080fa00000006000600fa005e
:100b200020079800206080006101b8002e0090002e
:100b30008000eb00809ab900828bb90086027800b1
:100b4000050242000010b800010242008400780053
:100b5000008fbe00008fbe001e00be004008de00f9
:100b600000007800506088000080fa000000060055
:100b70000400fa001007980023a8a900f1a0800043
:100b8000010f78001e0090000000e000030032001a
:100b900001a180001e0090000108780023a8a80091
:100ba0001e0078000080fa00000006000200fa0033
:100bb000000f780010c0b3009e0078000100e00034
:100bc00001003c000040eb000080fb006100600081
:100bd000a2708000e1ff2f00810061000100700021
:100be000a07088000080fa00000006000200fa00f1
:100bf000000f780010c0b3009e0078000100e000f4
:100c000001003c000040eb000080fb006100600040
:100c10004400dd00a2708000f1fe2f008100610021
:100c200001007000a07088000080fa00000006003b
:100c30000200fa00000f780010c0b3009e00780098
:100c40000100e00001003c000040eb000080fb00e0
:100c50006100600000004000a2708000d1ff2f0002
:100c60008100610001007000a07088000080fa001f
:100c7000000006000400fa00803e2000000f78000b
:100c80002003a9002023a800000000000019800014
:100c9000610060000000e00008003a0010c0b300ee
:100ca0009e0078000100e00001003c000040eb00e5
:100cb0001e0fe9000004e000f4ff3a000118800074
:100cc000110798001e0090000080fa000000060046
:100cd0000000fa0000ba2700f12520000080fa0089
:100ce000000006000a00fa0030079800410798004b
:100cf000ce00900000802000808f5000020036005f
:100d00000040eb003100370072c20200000000001a
:100d10000000240001102000008fbe0032002400db
:100d20001e00be00040e02000000000082c202008d
:100d3000000000004e009000630040004280de0092
:100d4000200798001600370072c202000000000061
:100d50003e0090000080e800900078003e00900087
:100d600010007800010278008001eb00000178009b
:100d70001e00be006c0e02000000000082c20200d5
:100d8000000000003e009000640040003007980022
:100d900042002000030020001e0f41005e97490022
:100da00010c0b300ae0090000100e00001003c0064
:100db0000040eb00ae0090008100e90021079800a0
:100dc0000004e000e0ff3a0010c0b3000080fa0029
:100dd000000006000800fa0020079800310798007c
:100de00072c2020000000000000024000110200078
:100df000008fbe003e0090000002eb0080017800f2
:100e00002e0190001e00be008a0e020000000000ad
:100e100082c20200000000000080fa00000006000c
:100e20000200fa00000f78001e0078000141210046
:100e3000b0187800a0107800e48040006400400002
:100e4000b0187800a0107800e480400064004000f2
:100e5000b0187800a0107800e480400064004000e2
:100e60001000200051ff07000000eb0070ff07009a
:100e70000000eb005dff0700ffff37000000fa00f5
:100e8000213a800000fe2f00008060000000a000da
:100e9000203a8800f0032000303a8800203a800091
:100ea0000060a1000070a100203a88004827ef00f0
:100eb0001200200080072000a109200033742000c8
:100ec000804978008149780082497800120020002a
:100ed0006004200071052000237420008049780000
:100ee000814978008249780000000000113a8000b2
:100ef000000027008080600000002100808f5000eb
:100f0000faff3a0000000000113a800000022000c1
:100f1000008060000000e000fbff32000080fa006b
:100f2000000006001400fa005007980061079800be
:100f300072079800030f9800140f98005e0090004d
:100f4000ee00900000004000818048007e0190008b
:100f50008e09900000120200000000003007980087
:100f60004107980060002000200798001200370019
:100f70003e009000ce0090002e019000820178008b
:100f80008301e900030033008100d1000080d30019
:100f9000fbff3700008fbe001e0890008000eb00b2
:100fa000be0f5000ae8f5800070036002e00900094
:100fb0000000e900200798002e0090000000e000eb
:100fc000ebff3d0001003700000000002e00900004
:100fd0000000e00002003d000000eb002007980048
:100fe0002e00900000407800674060000080fb0009
:100ff000670060001260800081ff2f0081006100a7
:1010000001007000106088001e00780020608800d9
:101010000080fa00000006000c00fa00200798008b
:101020003107980042079800530798002e0090005f
:10103000be00900000004000818048004e019000fa
:10104000de0190000012020000000000008fbe00d0
:101050001060800000407800674060000081fb0065
:101060001e00be00820178008301e9000300330006
:101070008100d1000080d300fbff3700008fbe004d
:10108000f0ff2f00010020001e01be00800f510064
:10109000818f590003003600f0ff2f00010020006f
:1010a000008fbe001e007800406388000080fa00b8
:1010b000000006000a00fa00200798003107980097
:1010c0004207980005a1a9000421a90004c1a900b4
:1010d0004e0090008000eb002e0190008191b9003d
:1010e000be019000809ab90084017800030141009c
:1010f000ae0190000018b8000101410082007800a4
:1011000002242400f300200000120200000000006e
:10111000008fbe00f00f2000010020001e01be0065
:10112000800f5100818f5900050036002008800093
:101130000040a0000050a000200888001a003700de
:10114000f0032000010020001e01be00800f5100ae
:10115000818f590005003600200880000040a10062
:101160000050a000200888000f0037001e01be00bc
:101170007000200001002000800f5100818f590075
:1011800005003600200880000040a0000050a100ab
:101190002008880004003700200880000040a100db
:1011a0000050a100200888000000eb00e0a08800ab
:1011b0000080eb00100888000042800000c0a00002
:1011c00000d0a10000e0a000004288002068a80034
:1011d00005e1a8000080fa00000006000200fa0005
:1011e000000f780010c0b3009e0078000100e000fe
:1011f000010034000040eb000080fb006100600053
:101200000000400022708000d1ff2f0081006100ab
:1012100001007000207088000080fa0000000600c5
:101220000200fa00000f780010c0b3009e007800a2
:101230000100e000010034000040eb000080fb00f2
:10124000610060004200dd0022708000b1ff2f00cd
:101250008100610001007000207088000080fa00a9
:10126000000006000000fa000e0ea8000e2ea900d5
:101270000e8ea9001e0ea9001e2ea9001e4ea9004a
:101280001e6ea9001f0ea900000ea800006ea80087
:10129000008ea80011aea80011cea800002ea90053
:1012a000004ea900100ea900102ea900108ea90052
:1012b000114ea900116ea900118ea90011eea9000e
:1012c000042ea800044ea800140ea900142ea90094
:1012d000148ea900154ea900156ea900158ea9003f
:1012e0002136800000f82f0080806000200220005e
:1012f000010070002036880001348000f00f2c00bf
:101300008080600000102000010070000034880020
:101310001135800000f82f0080806000d00220008e
:101320000100700010358800c248a90023a8a80059
:10133000704280000040a0000050a1000060a000aa
:101340007042880001358000f00f28008080600026
:10135000004021000100700000358800c228a8006c
:101360002288a900504280000000a1000010a100c6
:101370000020a00050428800086ea8002268a90042
:101380004042800000c0a10000d0a10000e0a00009
:101390004042880021e3a90021a3a9002143a8001d
:1013a000001980000080a1000090a10000198800b1
:1013b0002043a900001980000050a0000060a00098
:1013c0000070a100001988002083a9001019800076
:1013d00000d0a10000e0a10000f0a10010198800d9
:1013e0002343a900101980000080a1000090a100f3
:1013f000101988002203a90025e3a8002119800004
:10140000f00f2e008080600000a02000010070001e
:10141000201988003303a9004119800000fe2f0025
:10142000008060004019880028e3a9002e23ef0007
:101430003023ef0021e3a80001eca90001aca900d2
:10144000016ca900014ca900010ca90000eca90045
:101450001beca900218ca900214ca900212ca9007a
:10146000210ca800006180000060a1000070a000b5
:1014700000618800206ca900204ca900202ca90044
:10148000200ca800618ca900614ca900612ca80067
:10149000610ca900006380000060a1000070a00042
:1014a00000638800606ca900604ca900602ca90052
:1014b000600ca80023eca90023cca800238ca90071
:1014c0001061800000a0a00000b0a10010618800a1
:1014d000230ca90043eca90043cca90063eca900ac
:1014e00063cca90063aca9001063800000a0a00039
:1014f00000b0a10010638800632ca900250ca9008e
:10150000206180000000a0000010a0002061880081
:10151000450ca900206280000000a1000010a1007d
:1015200020628800650ca900206380000000a000f4
:101530000010a0002063880004102000026a280028
:101540001300200000ba2700f125200075fe0700d7
:101550000a2cef00828b28000300200000ba27002d
:10156000f1252000acfe0700406380000000d100a0
:101570003063880001eca800a200200000ba270018
:10158000f1252000cbfe07000080fa0000000600d5
:101590001400fa004c7d020000000000c25a020054
:1015a00000000000d467020000000000684f020045
:1015b000000000002e0090000000a100200798000d
:1015c0002e0090000010a100200798002e0090002f
:1015d0000020a100200798002e0090000030a100fc
:1015e000200798002e0090000040a10020079800de
:1015f0002e0090000050a000200798002e009000c0
:101600000060a0000070a100200798002e0090004c
:101610000080a100200798002e0090000090a100fb
:10162000200798002e00900000a0a10000b0a100ab
:10163000200798002e00900000c0a00000d0a0005d
:1016400000e0a10020079800400620003007980025
:101650004006200040079800640047000001780021
:1016600011002000607b29007c7d0200000000004a
:10167000c0a38800c0a38000e10f400003003a002f
:10168000b03e200062c2020000000000c0a3800043
:1016900002202c0013002000f69b02000000000036
:1016a000008fbe005e0090000000a100500798006f
:1016b0005e0090000010a100500798005e009000ae
:1016c0000020a100500798005e0090000030a100ab
:1016d0000040a1000050a000500798006a00470099
:1016e0000001780011002000b07b29002a5b020075
:1016f00000000000d0a38800d0a38000e10f4000cc
:1017000003003a00c03e200062c202000000000058
:10171000d0a3800011002000ee9302000000000022
:10172000d0a3800060079800e08e2000700798002a
:101730006c00470080007800f07b2900ea67020017
:1017400000000000e0a38800e0a38000e10f40005b
:1017500003003a00903e200062c202000000000038
:101760000268a9002268a800d0a38000000f98009a
:1017700000912000100f9800700047008000780052
:10178000807c29007e4f020000000000f0a388004a
:10179000f0a38000e10f400003003a00a03e2000cb
:1017a00062c20200000000000288a9002288a8008e
:1017b0000080fa00000006003600f800809fbe009e
:1017c000829fbe00849fbe00869fbe000000fa007c
:1017d0000188a900908b8000773807000080fa000c
:1017e0004f03be004f02be004f01be004f00be00bf
:1017f0003600f900004006003600f800809fbe0069
:10180000829fbe00849fbe00869fbe000000fa003b
:1018100003e8a900a08b8000673807000080fa0069
:101820004f03be004f02be004f01be004f00be007e
:101830003600f900004006003600f800809fbe0028
:10184000829fbe00849fbe00869fbe000000fa00fb
:101850000168a900908b8000123807000080fa0010
:101860004f03be004f02be004f01be004f00be003e
:101870003600f900004006003600f800809fbe00e8
:10188000829fbe00849fbe00869fbe000000fa00bb
:1018900003c8a900a08b8000023807000080fa006e
:1018a0004f03be004f02be004f01be004f00be00fe
:1018b0003600f900004006003600f800809fbe00a8
:1018c000829fbe00849fbe00869fbe000000fa007b
:1018d000b0838000dd4407000148a9003002900079
:1018e000e00f520006003a00b08380001b2607007c
:1018f00011002000b0838000ee4407000200370092
:10190000b08380009c2507000080fa004f03be00d2
:101910004f02be004f01be004f00be003600f9006e
:10192000004006003600f800809fbe00829fbe0087
:10193000849fbe00869fbe000000fa00c083800026
:10194000c24407000428a90030029000e00f5200b2
:1019500006003a00c0838000002607001100200026
:10196000c0838000d344070002003700c08380009a
:10197000812507000080fa004f03be004f02be0021
:101980004f01be004f00be003600f90000400600c7
:101990003600f800809fbe00829fbe00849fbe007c
:1019a000869fbe00881f78000000fa000128a90069
:1019b0006807210018007800e825070011002000c2
:1019c00018007800bb4407000080fa004f0478003c
:1019d0004f03be004f02be004f01be004f00be00cd
:1019e0003600f900004006003600f800809fbe0077
:1019f000829fbe00849fbe00869fbe000000fa004a
:101a00000408a900c0838000d4250700110020002d
:101a1000c0838000a74407000080fa004f03be0087
:101a20004f02be004f01be004f00be003600f9005d
:101a3000004006003600f800809fbe00829fbe0076
:101a4000849fbe00869fbe000000fa00150880003b
:101a50008502e80064818000048252002c30ef008f
:101a600009003a000400200015002000d08080000a
:101a7000e18080000000420081804a00d080880020
:101a8000e18088000700370005002000d680800034
:101a9000e78080000603420087834a00d6808800e2
:101aa000e7808800d6808000e78080004438dd0031
:101ab0004c32de0004027000cc3ade00f5ff20005c
:101ac0000683620007002000d6808800e780880037
:101ad0006123b80030818000418180000000430014
:101ae00081804b003081880041818800853e200044
:101af0008522b80005002000168180002781800023
:101b00000603420087834a001681880027818800e7
:101b10000201f8002e10f90002a1ef00911e07004b
:101b20008080800091808000808188009181880081
:101b30000068a9000080fa004f03be004f02be00fb
:101b40004f01be004f00be003600f9000040060005
:101b50003600f800809fbe00829fbe00849fbe00ba
:101b6000869fbe000000fa00600880006103b80094
:101b70007008800001002000c000dd00000020008f
:101b80000602700087827000a0808000b180800013
:101b900061001000e08018000000420081804a00cf
:101ba0001430ef001630ef008480800095808000b4
:101bb0000402400085824800848088009580880067
:101bc000c4808000e20f520001003a00581e070056
:101bd000f4ff2700740888000ca1ef000108a90099
:101be00000082000955a070000e8a8000080fa00cd
:101bf0004f03be004f02be004f01be004f00be00ab
:101c00003600f900004006005400f8004239880010
:101c100050398800613988000500fc00510520001a
:101c200071398800a10a20007139880029e7a800cd
:101c300000000000000000005400f9000000060051
:101c40000400a100010037000400a0005400f800c7
:101c50005039880061398800a00f2000a002880058
:101c60000000eb002100240041398800f10f200022
:101c70003208bb000400a700b20078000198bb0046
:101c80002ca7ec008301e900f9ff3a00680151003c
:101c90000400a70068015100680050001208bb0052
:101ca000ddff3700f30f20005400f80050398800a2
:101cb00061398800a10288001100240041398800a0
:101cc0000208bb000388bb00d3ff37005400f800b4
:101cd00040398800d0ff3700f30f2000f50f2000b7
:101ce0005400f8005039880061398800a00f2000a6
:101cf000a00288000000eb000208bb000398bb00b4
:101d00000408bb000598bb0011002400413988007d
:101d1000c1ff37005400f800a1028800800278005b
:101d200062004000e08048003549ba003204e0001b
:101d30000410a700100032008301e9000e003200f9
:101d40002549ba003204e0000410a7000a0032005e
:101d50008301e900080032000408a300eeff32000e
:101d600015c9ba003204e0000410a70002003200d6
:101d70008301e900e8ff3a005400f9000000060082
:101d800003f0a200889fbe008a9fbe008c1f7800cf
:101d90002d010700340133006450e1004f00320090
:101da0006420e1005200320003826c0007003b0017
:101db0000905d0000306d000820f54000c065d0018
:101dc0000200390002003200890178000306780021
:101dd0008582550004003d000003fd008103fd00e5
:101de0008502ea008b854200840f720002003b00ee
:101df00060001000e08018006011b8000005eb00e2
:101e00007a28e1000a00390006007800c75ddd008d
:101e1000f707b200878075002d00370082817100be
:101e20000a017800610560008180d1000080d30044
:101e30008502e900f9ff3b00060440008784480062
:101e400002003b0060041400e0841c000988a30029
:101e5000070032008a817100828171006101640093
:101e60008904d1000884d3008b05e80017003700ef
:101e70000978a30013003a000b00e00013003400bf
:101e80008b05e9000804440089844c000a4474006e
:101e90000978a3000d003a000b00e00007003400b1
:101ea0008b05e9000804440089844c0001003a00d5
:101eb0000b0020000978a300f7ff32000001eb00bf
:101ec00002003700828171000a017800a00007003b
:101ed0000cf0a70001f0a000ec0037006420e10046
:101ee00002003a00838f6c00ec0033000801be0052
:101ef0000200be00e5003700889fbe008a9fbe003a
:101f00008c1f7800d0000700d700330003866c00d8
:101f10006450e1002e0032006420e1003300320002
:101f20006150e1002f0032006120e10031003200f9
:101f300085855500eb07b00009002000080420004b
:101f4000050037000804440089844c000a00310071
:101f50000603430087834b000001530081815b002f
:101f6000f8ff33000203be000800a000080444008c
:101f700089844c00f6ff3900c639dd008301730007
:101f800001003200130020008904d1000884d3002e
:101f90000998a300050032000800a7000300a00074
:101fa0008904d1000884d3008b05e8008904d1009e
:101fb0000884d3000001eb000281d2006400070016
:101fc00001f0a1000cf0a70001f0a000af00370065
:101fd0006420e100b10032000801be000200be0032
:101fe000f7ff37006120e100ac0032006000b8006c
:101ff000f3ff37000000200001f82700f0ff370052
:10200000839f68000100e00002003d0060001000b6
:10201000e08018000300e00002003d0060011100b4
:10202000e0811900f60007004f00e00002003b00cd
:1020300060001000e080180000000600140020007e
:1020400040023700f4ff2f003e0237000001be00bf
:10205000680007000470a70003f0a1006509b10043
:10206000160032000d0035006828e100060035003a
:10207000f0ff2f00f1ff27000300e00013003b00fa
:102080000100280000000500000040008180480099
:102090008502e900fcff3a0008003700f88f420093
:1020a00002003c008000eb00000005008100d10030
:1020b0000080d3008502e800fcff3a000300e00046
:1020c00002003b0060001000e080180000000600e5
:1020d0000001be00470007000470a70003f0a10044
:1020e00003f8a30013003a006509b10010003200a4
:1020f000090035006928e1000200350001002800d0
:102100000000050000004000818048008502e900d1
:10211000fcff3a0000000600f88f42000500350081
:102120008100d1000080d3008502e800fcff3a0066
:10213000000006008000eb00000005004f89de0073
:10214000820178001a0237006011b80028023700b7
:1021500081002000618055000b003d000b00200035
:1021600061fe2f000100e1001d003400828171003a
:10217000610164008904d1000884d3000000e800f4
:10218000faff3a0071002000610064000300700053
:10219000020060000900320061044400e0844c0049
:1021a0000988a500050032008b05e8006808e100f9
:1021b00002003a008904d1000884d300f20f200005
:1021c0000258e10005003d00c75ddd00f907b200df
:1021d0008980750008007800000006000bf82700d1
:1021e0008b00780000000500c90107000509780090
:1021f00000000600c70ade00f107b200f50fb200ca
:1022000008003200e1cf4200020032000170a0005d
:1022100024000500810f7000010032000408050051
:1022200044000500810f700002003a001400050010
:102230008502e9000000400081c04800fcff3b002f
:102240000170a000240005000004be00e9ff0700a3
:102250000003be000405be000200be00e5ff07004b
:10226000844f7500000006000200be006450e100cb
:10227000050036006420e100020036000968a30072
:1022800001003a000800be000160a0004f0678007f
:102290004f05be004f04be0000000600f0ff2f00f7
:1022a000f1ff2700f9ff37000003be00d1ff070050
:1022b0006220e100020032000600be0000000600bd
:1022c00085024100e30f20000328e10005003c00e7
:1022d000a3fe2f000328e10007003d0005002000b9
:1022e00001003700f50f200020022000d08c88006c
:1022f0006000b800080037001300200083815200fe
:1023000005003d008100d1000080d3008301e8007a
:10231000fcff3a0005002000c72add00f107b200eb
:102320008580700007f0a70001f0a0000000060003
:10233000889fbe008a9fbe008c1f7800c2ff0700e6
:10234000c9ff330003866c006450e10024003200b2
:102350006420e100270032006150e10022003200d9
:102360006120e100210032008b854200eb07b100c3
:102370000134b800003ab8000804420089844a00d9
:10238000013ab8000030b8008880400009014a00d6
:102390000400330000004000818048000201490031
:1023a0008b05e900c909dd008301700001003200de
:1023b00013002000c814de004814dd004709de00c9
:1023c0001200b200c808de000884700060ff070039
:1023d00001f0a1000cf0a70001f0a000abff370056
:1023e0006120e100adff32000801be000200be0026
:1023f000f7ff37006150e100fcff3a00a7ff37000c
:102400006022b800060220000000d0008180d200c7
:102410000482d2008582d2000000a0000202520095
:1024200083825a00030031000202420083824a0084
:102430000000a1000603e900f3ff3a0000000600d7
:10244000efff07000400be0000000600020ab9000a
:10245000001bb9000200b800810042008100430067
:1024600000000600889fbe008a9fbe003004420024
:10247000b0844a0030054b0090854b006000b100ed
:102480000898be000a90be000440e10005c8e100c3
:1024900006d0e10007d8e1000200310068004000ea
:1024a0001008e8004f05be004f04be000000060003
:1024b000889fbe008a9fbe003004be002005be007b
:1024c0000418540005985c0006185d0007985d002c
:1024d000110020000440e10005c8e10006d0e10041
:1024e00007d8e100010039008000eb0010881000df
:1024f0004f05be004f04be00000006001200fa00a7
:10250000889fbe008a9fbe008c9fbe00e0b79f00e0
:10251000f1b79f0082bf9f0093bf9f000605be00da
:102520000404be000000eb00d0b79f00c0b79f00be
:10253000b0b79f00a0b79f0090b79f000006eb00c8
:102540005fb19700cfb09700820141003fb0970084
:102550000200e00004003d00370007007e805700c5
:10256000c0ff070003003700330007007e805700dc
:10257000cfff0700dfb697000d00e0000c0035002c
:102580006fb29700ffb297000fbb97009fbb9700f9
:1025900010002000010020006011b800000272004d
:1025a0008182720002037300838373001b000700a3
:1025b0000c06e80001042000810f5600e0ff3a00fd
:1025c0000d00e00004003d000802be000a03be004a
:1025d0007e805700a3ff07005fa897000000e0007f
:1025e00005003a001fb29700afb297003fb39700c3
:1025f000cfb39700090007006fb09700ffb09700b6
:102600000fb997009fb997004f06be004f05be0057
:102610004f04be000080fa00000006000100070021
:1026200000000600a4b79f00b5b79f00c6b79f0083
:10263000d7b79f00000006004f09de0082817100bd
:10264000b3b79f004f01de008180400082807000a0
:10265000a1b79f008fb097004f09de000000400037
:102660000200700090b79f007fa897004f01de0026
:10267000818040008280700081b79f000d000700bc
:102680004f3ade000000400004007000f0af9f00f1
:10269000080007000402420085824a0006034b003e
:1026a00087834b00dfff07000802be000a03be005d
:1026b000000006002fb29700bfb297004fb39700fb
:1026c000dfb3970000000600881f78001800200084
:1026d000881f780089ff07008f87e9004f04780082
:1026e00000000600801feb0084ff07008f87e900d1
:1026f00000000600889fbe008a9fbe00e00f5000c9
:10270000e08f5800e00f5900e08f59000c003d00a9
:102710006044b8006055b8000000540081805c003f
:1027200002015d0083815d00180020001500070094
:1027300008003d00180007000004eb00050037000a
:102740000004eb000f00070002003d00120007002c
:1027500018002000dcff07000800e000060032003f
:102760006022b8006033b8000000520081805a0037
:1027700002015b0083815b004f05be004f04be0079
:1027800000000600e00f5200e08f5a00e00f5b00ef
:10279000e08f5b00000006006044b8006055b800a0
:1027a0000402540085825c0006035d0087835d009f
:1027b00000000600889fbe008a9fbe008c1f780024
:1027c000e00f5000e08f5800e00f5900e08f5900f3
:1027d0000d003d006044b8006055b8000000540092
:1027e00081805c0002015d0083815d001c0020008f
:1027f0000820e10009a8e1000ab0e1000bb8e100ff
:102800000d003d00080037000006eb00e00f52000d
:10281000e08f5a00e00f5b00e08f5b0006003d0098
:102820006044b8006055b8000402540085825c0022
:1028300006035d0087835d00aaff07000c00e0002f
:10284000060032006022b8006033b8000000520079
:1028500081805a0002015b0083815b004f06780093
:102860004f05be004f04be0000000600889fbe005a
:102870008a9fbe008c1f78000006eb00e00f50001e
:10288000e08f5800e00f5900e08f590007003d002d
:102890006044b8006055b8000000540081805c00be
:1028a00002015d0083815d001c002000e00f5200ea
:1028b000e08f5a00e00f5b00e08f5b0007003d00f7
:1028c0006044b8006055b8000402540085825c0082
:1028d00006035d0087835d000c00a2007300070003
:1028e0000c00e000060032006022b8006033b8003f
:1028f0000000520081805a0002015b0083815b006e
:102900004f0678004f05be004f04be0000000600d1
:102910000003be0037fe07006220e1000200320023
:102920000600be0005000500e507b100f107b20092
:1029300004f023008480700007f0a70001f0a000dd
:1029400024000500889fbe008a9fbe00841f780077
:102950003dfe07004f00780011003300f0ff2f000c
:10296000838f6c0006003b00040565000a00a70089
:102970000800370009f0a60010002000080037000a
:10298000820f5400838f5c00030039001000200088
:1029900001003e000000200009f0a7000000ea004e
:1029a0004f05be004f04be000000e000000006001e
:1029b000881f7800030478000300e00007003d0052
:1029c00060001000e080180060011900e08119002b
:1029d00002003b0001f02d00030037000400070057
:1029e00008f0a70001f0a0004f04780000000600e6
:1029f000889fbe008a9fbe000082700004027100a2
:102a000004827100260032000004be000200be00f5
:102a10006011b8006b092000950220000182cf00f0
:102a20000a0039000541b1000082cf0007003900db
:102a30000541b1000982cf00040039000541b10011
:102a40000882cf00010039000541b1000542520063
:102a5000120032000a003b008281710061016400b3
:102a60008100d1000080d3008984d3000884d30082
:102a70008b05e8000442e800f7ff3a000700370042
:102a80000804440089844c0000004800818048000c
:102a90008b05e9000442e900f9ff3a00acfd0700ac
:102aa0004f05be004f04be0000000600889fbe0018
:102ab0008a9fbe008c9fbe000404b8000506b800c3
:102ac0008904460060854e000606b8000a054600e7
:102ad000e0854e000706b8008b054600040eb800de
:102ae000890446000a854e00e0854d00050eb800b9
:102af0000a0546008b854e00060eb8008b05460081
:102b00000416b8000a0546008b854e000516b8006d
:102b10008b054600041eb8008b0546000800be0069
:102b20000a01be004f06be004f05be004f04be00a6
:102b300000000600889fbe008a9fbe008c9fbe00da
:102b4000800578000204be00010578000200be0086
:102b500001003700820578006156b9000c01be0003
:102b600027fe07000b01e800e00f5000e08f58003f
:102b7000f8ff3a000049eb000c01be000800be005f
:102b80002ffe0700004578000c01be000800be00c3
:102b90001bfe07000004be00e94f55000100340091
:102ba0006745450000c3b30080554500e00f540061
:102bb000e08f5c00f0ff3a000b0078004f06be008b
:102bc0004f05be004f04be0000000600881f7800bd
:102bd00000047800e00f5100e08f590006003d002e
:102be00008007800d4c2b3000458780060011100d6
:102bf000e08119000100370008007800cdff0700d0
:102c0000080078004f04780000000600800178007a
:102c100002003700b15978000201e9000200e0002b
:102c2000fcff3a0000000600800178000200370037
:102c3000815978000201e9000200e000fcff3a003f
:102c400000000600b041780031c1510002003a0096
:102c50000304e000fbff3a000200fb000000060056
:102c6000800078003104e000feff3a000080ea00b6
:082c7000008040000000060096
:020000040000fa
:102c78004f53000000530000595300000042000069
:102c88004154000054450000525900000043000020
:102c9800414c0000494200000056000065720000e7
:102ca800736900006f6e0000004d0000656d000044
:102cb8006f720000790000004b650000726e000022
:102cc800656c000000540000617300006b00000098
:102cd8004f5300002e560000657200007369000013
:102ce8006f6e0000004f0000532e00004d6500007d
:102cf8006d6f000072790000004f0000532e000035
:102d08004b650000726e0000656c0000004f00000b
:102d1800532e000054610000736b00002e30000039
:102d280000530000657400004d6f000064650000ea
:102d38000053000065740000544d0000005300006b
:102d4800657400004d6f0000746f00007200000091
:102d580053590000532e000056650000727300009e
:102d6800696f00006e000000566f00006c74000070
:102d78006167000065000000566f00006c74000079
:102d88006167000065430000616c00006962000033
:102d98000042000041540000544500005259000010
:102da8002e5600006f6c000074610000676500001b
:102db800004900004d55000000000000234d0000b0
:102dc800414a00004f5200002e2300004d490000e8
:102dd8004e4f0000522e00002352000045560000be
:102de80049530000494f00004e0000004d690000a3
:102df800637200006f63000068690000705f000084
:102e08005049000043320000342f00006473000072
:102e180050490000435f0000554100005254000033
:102e280000000000234d0000414a00004f520000fe
:102e38002e2300004d4900004e4f0000522e000086
:102e4800235200004556000049530000494f000036
:102e58004e0000004d690000637200006f630000bf
:102e680068690000705f00005049000043320000ac
:102e7800342f00006473000050490000435f0000d5
:102e8800535000004900000054610000736b0000bb
:102e98005f4d0000616900006e0000005461000091
:102ea800736b00005f55000041520000545f000042
:102eb8005478000000540000617300006b5f00004c
:102ec80055410000525400005f5200007800000095
:102ed80054610000736b00005f4c00004544000023
:102ee80000000000544d00002e53000074610000e3
:102ef8007274000000530000454e0000534f00005c
:102f08005253000000530000544100005445000093
:102f180000430000545200004c000000544d0000d3
:102f28002e4500006e64000000000000312e0000f5
:102f3800302e000030000000416e0000616c00007f
:102f48006f67000044650000766900006365000053
:102f58005f410000445800004c3300003435000045
:102f680000000000554100005254000000530000ca
:102f78005049000000580000595a00002041000044
:102f8800636300002e0000005a200000477900000b
:102f9800726f000000000000312e0000302e00008b
:102fa8003000000049760000656e0000736500007f
:102fb8006e730000655f0000495300005a3200003c
:102fc80035310000300000003d0000002e7b00007d
:102fd80000230000002c0000007d00000d0a000006
:0c2fe80000000000db0f0000494000006a
:020000040000fa
:102ff4000400fa00008fbe00f026210031a823004f
:10300400d0938800e193880000fb20001172230014
:10301400f0938800019488004021220001ae23002f
:10302400109688002196880090972e0061f4230062
:10303400309688004196880040c32a0081792b008d
:10304400509688006196880050dc2a0021a823004d
:103054007096880081968800a0ac210051af2300af
:1030640090968800a19688006010280051f32300f0
:10307400b0968800c1968800600a2300716e230010
:10308400d0968800e1968800e04a2d0031a32b00f9
:10309400f096880001978800609c2f00b1a92b004e
:1030a400109788002197880040b42800c1f42300b9
:1030b4003097880041978800a0cc200061782b00cd
:1030c400509788006197880080f52f0071a62b0027
:1030d4007097880081978800609c2f00b1a9230015
:1030e40090978800a197880040e12a0071f6230098
:1030f400b0978800c1978800701d2e0051702b0076
:10310400d0978800e197880010b92000e19c2b003b
:10311400f0978800019888007020240021a32300e0
:10312400109488002194880080a7270051f123007f
:10313400309488004194880080e42b0011642b00b3
:103144005094880061948800002f2a00f1aa23007b
:10315400709488008194880050872a0081862b000f
:1031640090948800a1948800f0512800b1f42300c1
:10317400b0948800c194880050012c00d1732300be
:10318400d0948800e1948800a08e2700c1ac23006d
:10319400f094880001958800f09b2400319d2b0059
:1031a4001095880021958800d0a52800b1f223004d
:1031b4003095880041958800e0f0270001632300e2
:1031c40050958800619588005043250061852b0047
:1031d4007095880081958800a029200061652b00e6
:1031e40090958800a1958800c0fe2200b1f42300c8
:1031f400b0958800c195880040bb2a001173230054
:10320400d0958800e1958800e062250041ad2b004f
:10321400f095880001968800c0f5280021e8230075
:103224001098880021988800c0002d00413e240099
:103234003098880041988800d0cc2c00c1d4230059
:1032440050988800619888001e01be00729888001a
:10325400839888000080fa00000006000800fa0045
:10326400881f7800200798003107980018c0b30021
:103274006011b8002e009000be00900022100200e1
:10328400000000000000e00001003d000044eb00ed
:103294000804e00010003200f093800001948000e4
:1032a4002e019000be019000981102000000000061
:1032b4000002be00d0938000e19380000001be00b4
:1032c4000400be00c20e02000000000001f0a200d3
:1032d400008fbe000f003700f0938000019480003f
:1032e4002e019000be019000981102000000000021
:1032f4000002be00d0938000e19380000001be0074
:103304000400be00c00e02000000000001f0a20094
:10331400008fbe001e00be004f0478000080fa003b
:10332400000006000a00fa00881f780030079800a1
:103334004107980018c0b3006011b8003e00900027
:10334400ce0090001e100200000000000000e0000b
:10335400010034000044eb004847980018c0b30053
:103364006011b8003e009000ce0090001e100200d4
:10337400000000000000e000010034000044eb0005
:103384000804e000050032003e009000ce009000ea
:1033940001f0a200300798004107980010988000bf
:1033a400219880003e019000ce0190009811020007
:1033b400000000000002be003098800041988000a8
:1033c4000001be000400be007c0f020000000000eb
:1033d400008fbe0018c0b300d2cc2c00c3dc230085
:1033e4001e00be0022100200000000000000e000e9
:1033f40001003c000044eb000804e000030032003c
:10340400d0cc2c00c1dc2300008fbe004e409000c5
:103414000004e00003003a001e00be0001f0a20018
:10342400008fbe001e00be004f0478000080fa002a
:10343400000006000a00fa00881f78003007980090
:10344400410798000040eb004047980018c0b300c3
:103454006011b8003e009000ce0090001e100200e3
:10346400000000000000e000010035000044eb0013
:103474000804e000070032003e009000ce009000f7
:1034840001f0a200300798004107980010c0b30073
:1034940040479800d0938000e193800018c0b300a7
:1034a4003e019000ce0190002210020000000000b6
:1034b4000000e00001003d000044eb000804e000cf
:1034c400020032006000b8001b003700d093800077
:1034d400e19380000001be003e009000ce00900009
:1034e400c00e020000000000300798004107980059
:1034f4003e009000ce0090000002be0005f0a20045
:10350400f0938000019480000001be000400be001e
:103514007c0f020000000000008fbe004e409000af
:103524000004e000030032001e00be0001f0a2000f
:10353400008fbe001e00be004f0478000080fa0019
:10354400000006001600fa00889fbe00000f9800d5
:10355400110f9800220f98002e089000cf80de00f3
:103564009e100200000000000001be00c20e020016
:1035740000000000b2fd2000930424009811020012
:103584000000000002002000032724007c0f02003a
:103594000000000020079800310798000e089000f2
:1035a4009e0890009e10020000000000d27b2300c1
:1035b400635823009811020000000000008fbe0031
:1035c40030988000419880000001be002e009000d9
:1035d400be0090007c0f0200000000000001be004d
:1035e4000000200001f82300c00e020000000000cb
:1035f4000002be0010988000219880000001be00e7
:103604000400be009811020000000000400798006a
:103614005107980010988000219880000004be0093
:1036240009f0a20030988000419880000001be009b
:103634002e009000be0090007c0f020000000000ed
:103644000200200003f82300c20e02000000000064
:103654000001be000800be00981102000000000036
:10366400600798007107980018c0b3004e019000dd
:10367400de0190001e00be002210020000000000c7
:103684000000e00001003c000044eb000804e000fe
:10369400030032004e019000de019000028fbe0054
:1036a40018c0b3006e019000fe0190001e00be0021
:1036b4001e100200000000000000e00001003500c0
:1036c4000044eb000804e000030032006e019000a7
:1036d400fe019000028fbe00509880006198800027
:1036e40018c0b3000001be001e00be00221002007c
:1036f400000000000000e00001003c000044eb007a
:103704000804e000030032005298800063988000af
:10371400028fbe00509880006198800001f0a200e2
:1037240018c0b3001e01be002210020000000000f9
:103734000000e00001003c000044eb000804e0004d
:1037440004003200509880006198800001f0a200cb
:10375400008fbe0018c0b300a2702d0033ba23003e
:103764001e00be001e100200000000000000e00069
:10377400010034000044eb000804e0000b003200b8
:1037840018c0b300a2702d0033ba2b001e00be0077
:1037940022100200000000000000e00001003d00d3
:1037a4000044eb000804e00008003a00ae08900072
:1037b400d0e02f00808f500014003500ae08900038
:1037c400301f2000808f500010003c000042eb00ae
:1037d4002e019000be0190001e00be00c50107002e
:1037e400008fbe007098800081988000a6702d0024
:1037f40037c223000002be002e019000be019000db
:103804001e00be00240007000a00370014c0b300e5
:103814002e019000be0190001e00be00b5010700fd
:10382400008fbe002e019000be0190001e00be005d
:103834000e01070002402200439724001e00be0030
:103844009811020000000000261002000000000091
:103854004f04be000080fa00000006000400fa00d5
:10386400000f7800110798009e0090001e00780059
:10387400060207000080fa00000006000200fa00b9
:10388400000f78000080fa00000006000000fa0033
:103894000080fa00000006003000fa00889fbe0095
:1038a40000179800111798002217980033179800f2
:1038b40044179800551798006617980077179800d2
:1038c4002e109000be10900064fe0700008fbe0012
:1038d4001e01be000e1090009e109000c20e020049
:1038e400000000006e119000fe119000981102007b
:1038f400000000004e119000de1190007c0f0200c9
:103904000000000020079800310798002e11900055
:10391400be11900042079800530798002e019000b2
:10392400be0190002e109000be109000c20e020046
:1039340000000000600798007107980018c0b300e9
:103944006011b8004e009000de0090001e100200ce
:10395400000000000000e000010034000044eb001f
:103964000804e0000b00320018c0b3006011b80076
:103974006e009000fe009000221002000000000083
:103984000000e00001003d000044eb000804e000fa
:1039940016003a0018c0b3006011b8004e00900041
:1039a400de00900022100200000000000000e00091
:1039b40001003d000044eb000804e0000d0032006b
:1039c40018c0b3006011b8006e009000fe009000b3
:1039d4001e100200000000000000e000010034009e
:1039e4000044eb000804e000020032001000200054
:1039f400010037000000eb0000579800d0938000ce
:103a0400e193800018c0b3000e1190009e11900045
:103a140022100200000000000000e00001003c0051
:103a24000044eb000804e0000f003200d093800053
:103a3400e193800001f0a20018c0b3000e119000c1
:103a44009e1190001e100200000000000000e00023
:103a5400010035000044eb000804e00002003200dd
:103a640010002000010037000000eb001057980000
:103a74000e5090000004e000070032001e50900039
:103a84000004e000040032008000eb000000eb00c2
:103a94007e0107007200370014988000259880008a
:103aa40030988000419880000001be000400be00f0
:103ab4007c0f020000000000100f9800210f9800f6
:103ac4001e089000ae08900001f0a2006e11900054
:103ad400fe11900098110200000000004e119000a9
:103ae400de1190007c0f020000000000b48502008b
:103af40000000000300f9800410f98003e0990002c
:103b0400ce0990004e009000de0090009811020053
:103b1400000000006e019000fe019000c00e020043
:103b2400000000001e099000ae09900098110200e8
:103b3400000000000004be000200200003f823007f
:103b44003e089000ce089000c00e02000000000065
:103b54000001be000800be007c0f0200000000004f
:103b640000179800111798001e01be000e10900057
:103b74009e109000c00e0200000000000002be0073
:103b840010988000219880000001be000400be004f
:103b94007c0f020000000000500f9800610f980095
:103ba40018c0b3000200200003f823005e08900050
:103bb400ee0890001e100200000000000000e0006b
:103bc400010034000044eb00084078000004a20027
:103bd4000004e00003003200803e200062c20200c4
:103be4000000000018c0b3000200200003f82b00fe
:103bf4005e089000ee089000221002000000000011
:103c04000000e00001003d000044eb0008407800a3
:103c14000004a2000004e00003003200803e200003
:103c240062c202000000000002002000a34724003a
:103c34005e089000ee089000981102000000000059
:103c44002610020000000000700f9800813e200042
:103c5400200020000d0107007e0890006401070089
:103c64004f04be000080fa00000006000e00fa00b7
:103c7400881f780030079800410798005207980081
:103c8400630798005e019000ee0190003e009000f2
:103c9400ce009000981102000000000018c0b3008c
:103ca4006011b80022100200000000000000e000d3
:103cb40001003d000044eb000804e0000200320073
:103cc40010002000010037000080eb00000f780096
:103cd4001e007800e10f500047003a0018c0b300fe
:103ce4006011b8005e009000ee0090001e1002000b
:103cf400000000000000e000010035000044eb007b
:103d04002847980018c0b3006011b8003e00900026
:103d1400ce0090001e100200000000000000e00031
:103d2400010035000044eb000804e0000500320007
:103d34003e009000ce00900001f0a20030079800f1
:103d44004107980018c0b3006011b8005e009000ed
:103d5400ee0090001e100200000000000000e000d1
:103d6400010035000044eb000804e00005003200c7
:103d74005e009000ee00900001f0a2005007980051
:103d84006107980002002000a34724003e00900031
:103d9400ce00900098110200000000000002be0056
:103da40050988000619880000001be000400be00ad
:103db4007c0f02000000000026100200000000003a
:103dc400200798002e4090000004e00005003a000f
:103dd4002e0090008000780020002000ab00070037
:103de400410037002e009000800078003000200051
:103df400a60007003c00370018c0b3006011b800eb
:103e04003e009000ce0090001e1002000000000052
:103e14000000e000010035000044eb000804e0006d
:103e2400050032003e009000ce00900001f0a20098
:103e3400300798004107980002002000a34724009f
:103e44003e009000ce009000981102000000000097
:103e54000002be0050988000619880000001be00fe
:103e64000400be007c0f02000000000026100200c7
:103e740000000000200798002e00900080007800c9
:103e84002000200081000700ae00900050002000b8
:103e940000017800110009008200d8002007980072
:103ea40018c0b3006011b8005e009000ee009000ee
:103eb40022100200000000000000e00001003c00ad
:103ec4000044eb000804e000030032002e009000e0
:103ed4000000ea00200798000000eb00200798008b
:103ee4002e009000c20007004f0478000080fa0002
:103ef400000006000c00fa00889fbe008a9fbe00e6
:103f0400100798002107980032079800430798008b
:103f1400244f98002e4890000004e0000300320073
:103f2400202c2100000f78000200370020282100f7
:103f3400000f780018c0b3006011b8001e00900094
:103f4400ae00900022100200000000000000e0001b
:103f540001003d000044eb000804e0000e003200c4
:103f640018c0b3006011b8003e009000ce0090006d
:103f740022100200000000000000e00001003d00eb
:103f84000044eb000804e00013003a009e007800af
:103f9400708f40001000370018c0b3006011b800e3
:103fa4003e009000ce0090002210020000000000ad
:103fb4000000e00001003d000044eb000804e000c4
:103fc40003003200010320001e8f4000020037006e
:103fd400010220001e8f40001e0078001004be0065
:103fe4001e007800d0009000400090003e01900038
:103ff400ce01900098110200000000000001be00f4
:104004000800be00c20e0200000000000001be0055
:104014001e009000ae009000c00e020000000000e0
:104024000004be001e00780020059000b00590003a
:104034001e007800f0009000600090003e019000a7
:10404400ce01900098110200000000000001be00a3
:104054000a00be00c20e0200000000000001be0003
:104064000800be007c0f020000000000100798004a
:10407400210798001e009000ae0090004f05be007e
:104084004f04be000080fa00000006000800fa0099
:1040940020079800310798003e009000e90f500077
:1040a40005003e002e009000e10f50000200320097
:1040b4000000eb0020079800be009000803e200026
:1040c400808f500002003600803e200030079800a8
:1040d4002e009000e10f50000e003200e10f50005e
:1040e40002003900e30f50001a0036000000eb0014
:1040f400ee040200000000000000eb0010050200c6
:10410400000000000000eb008e050200000000002b
:10411400350037000000eb00ee0402000000000050
:1041240010002000320502000000000010002000f2
:1041340010050200000000000000eb008e050200e4
:104144000000000010002000ee0402000000000047
:10415400250037000000eb00ee0402000000000020
:104164003e0090008000eb000081eb008289b900e2
:10417400e002b90084017800030141008081eb0072
:104184000300b8000101410082007800823e200053
:10419400030020000012020000000000008fbe0097
:1041a4001e0078008e050200000000002e00900022
:1041b4000010a20000f0a7000000ea000000e900df
:1041c4004f00de0032050200000000000000eb009a
:1041d400100502000000000010002000ee040200a0
:1041e40000000000000000000080fa00000006004b
:1041f4000400fa00100798009e00900080c12f0070
:10420400808f500002003d0080c12f0010079800ed
:104214009e009000803e2000808f500002003400f9
:10422400803e2000100798001e009000cf80de0022
:10423400f2ff27008289b900e002b9008401780006
:1042440003014100f3ff27000300b800010141000e
:1042540082007800823e200003002000001002004b
:1042640000000000000f78000000eb00ee040200e4
:10427400000000001e007800560502000000000047
:104284000000eb00100502000000000010002000f8
:10429400ee040200000000000080fa0000000600a6
:1042a4000000fa000000eb00409c88006000b800a9
:1042b400209c8800319c880040062000209e8800b5
:1042c4006c6202000000000002a8210063002000cc
:1042d4008000eb00802d22008cbe02000000000054
:1042e400b09d88003ab9020000000000c09d88001b
:1042f4000080fa00000006000200fa00000f7800b7
:1043040072c20200000000009e007800419c8800f8
:10431400409c80000000e00005003200b09d800059
:104324008000eb00bebe0200000000000b0037005e
:104334006000b800209c8800319c8800b09d8000fb
:104344008000eb0028bf0200000000008000eb00aa
:104354000000eb00301c020000000000409c8000c4
:10436400e30f500001003a00a40207006000b80007
:10437400109d8800219d8800603a21008040eb0058
:1043840001487800803a21008040eb000148780021
:1043940082c20200000000000080fa000000060053
:1043a4000600fa00008fbe0022079800c09d80001e
:1043b4001e02be00130020000001eb0011002000cb
:1043c40070ba020000000000e10f500006003a003d
:1043d400209c8000319c80002e0190000089be004a
:1043e40010c0b300040037002e0190006000b80034
:1043f4000089be000040eb000080fa0000000600c7
:104404000400fa00000f78002147980072c20200ed
:1044140000000000409c8000e20f50001f003a00a2
:10442400703a21008040eb0001487800603a210096
:10443400ae409000014878006000b800109d8800ec
:10444400219d88001e007800cf80de00421f2000de
:104454008289b900e002b9008401780003014100b7
:10446400431f20000300b8000101410082007800ce
:10447400109d8800219d88001e0078000000e00047
:1044840006003a00703a210011c0b30001487800d8
:104494006000b800109d8800219d880082c202003f
:1044a400000000000080fa00000006000200fa008c
:1044b400000f780072c20200000000009e00780025
:1044c400a03a2100b0187800a0107800e4804000e1
:1044d40064004000b0187800a0107800e480400028
:1044e40064004000b0187800a0107800e480400018
:1044f4006400400082c20200000000000080fa0054
:10450400000006000200fa00000f780072c20200e8
:10451400000000001e007800a13921003102be0015
:104524002103be000498be000690be0082c20200b1
:10453400000000000080fa00000006000200fa00fb
:10454400000f780072c20200000000001e00780014
:10455400213921003102be002103be000498be00af
:104564000690be0082c20200000000000080fa0033
:10457400000006000200fa00000f780072c2020078
:10458400000000001e007800213a21003102be0024
:104594002103be000498be000690be0082c2020041
:1045a400000000000080fa00000006001000fa007d
:1045b400889fbe0030079800209c8000319c8000ba
:1045c40061004000e0804800209c8800319c880005
:1045d400209e80000000e00003003200209e800046
:1045e4000000e900209e880064004700b80502002e
:1045f40000000000509d8800f0a3800028530200b2
:1046040000000000909d8800a19d8800e0a3800028
:10461400033b2100e23a2100c13a21007e690200f5
:10462400000000000000eb00e09c88000000eb00ac
:10463400f09c88000000eb00009d88000000eb0067
:10464400a09c88000000eb00b09c88000000eb00f8
:10465400c09c8800509d8000619d8000729d8000f8
:10466400839d8000949d8000a59d80003f030700ea
:10467400000f7800f0e32f009e007800808f500038
:1046840006003500101c20009e007800808f50002a
:1046940002003c0010002000010037000000eb0085
:1046a40020479800409c8000e20f50000b0032002d
:1046b400e20f500005003900e30f500025003200de
:1046c400803e200062c2020000000000703a210017
:1046d40011c0b300014878005b0037002e40900001
:1046e4000004e000180032002e029000a9392100d5
:1046f40068044700203a21005001be004000be007b
:10470400809fbe00829fbe0084037800519d80007c
:10471400629d8000739d8000849d8000959d800033
:10472400a69d8000080078007d000700e8875700f8
:104734004e029000de0290006e039000fe03900093
:10474400849cbe008694be009e027800d59c88009e
:104754003d0037002e4090000004e0002f0032009e
:104764002e029000a939210068044700203a210054
:104774005001be004000be00809fbe00829fbe006c
:1047840084037800519d8000629d8000739d8000a9
:10479400849d8000959d8000a69d8000080078007f
:1047a4005f000700e88757004e029000de02900089
:1047b4006e039000fe039000849cbe008694be00ad
:1047c4009e027800d59c8800209e80000000e000b6
:1047d4000e003a00283a210068004700a23921005f
:1047e400213921003202be002203be0079000700f5
:1047f4004e029000de0290006e039000fe039000d3
:10480400049cbe000694be000f003700703a2100dd
:1048140011c0b300014878000b003700283a21008a
:10482400680047008000eb00500107004e02900032
:10483400de0290006e039000fe039000049cbe0014
:104844000694be0000000000213a2100a039210096
:104854003102be002103be005001be004000be0074
:1048640007000700c09d800011002000c6b90200a7
:10487400000000004f04be000080fa0000000600a3
:104884001000fa00009fbe000297be004407980083
:104894005507980066079800770798005e489000cf
:1048a4000004e000050032008000eb000000eb0093
:1048b400301c020000000000170037004e48900032
:1048c4000004e000050032008000eb00100020002e
:1048d400301c0200000000000f0037004e00900062
:1048e400de009000e00f5000e08f580005003a0011
:1048f4008000eb000000eb00301c02000000000010
:10490400050037003e0190004e009000de0090004c
:10491400a41a0200000000000080fa000000060053
:104924001600fa00881f78000004780041079800f8
:10493400520798006307980074079800050f9800c1
:10494400160f9800270f98006ef197001eb8970075
:10495400aeb897000e0b90009e0b9000a5002000af
:10496400024278000001be000600be009a62020006
:1049740000000000ee0090005e009000ee63020074
:1049840000000000019e80002e089000808f5000df
:10499400050032004e009000fe640200000000009a
:1049a400ae089000019e88000e0078004866020060
:1049b400000000003e02be002e03be00049cbe00a8
:1049c4000694be00080078004f0478000080fa00c6
:1049d400000006002000fa00889fbe000004780052
:1049e40074079800050f9800160f9800270f980079
:1049f400310f9800d19c8000d0f92f00808f500097
:104a040006003500d19c800030062000808f5000c5
:104a140002003c0010002000010037000000eb0001
:104a2400004f78001e4078000004e0000c003a00bb
:104a340010c0b300004f7800109e8000e90f5000b2
:104a440004003600109e80006a005000109e88000a
:104a5400050037000040eb00004f780002003700eb
:104a6400401f2000109e8800509c8000e10f5000e1
:104a74001f003200e10f500007003900e20f500020
:104a84004e003200e30f500037003200803e200019
:104a940062c20200000000007e0090008e089000b8
:104aa4001e099000ae099000980107000004e00080
:104ab40002003200e1000700090037008e08900070
:104ac400700c2000808f500005003c008e08900080
:104ad40090f32f00808f500001003500f90007008b
:104ae400ae0890000e80e800a000070086003700a2
:104af400780047007e0290008e0a90001e0b900002
:104b0400ae0b900082b40200000000004e0a900038
:104b1400de0a90006e0b9000fe0b900014079800c4
:104b24002507980036079800470798008e089000dc
:104b3400700c2000808f500006003c008e0890000e
:104b440090f32f00808f500002003500dd00070035
:104b54006d0037000e4890000004e000650032004c
:104b6400a60007006800370078004700a100200075
:104b74007e0290008e0a90001e0b9000ae0b9000f7
:104b8400a6ae0200000000004e0a9000de0a90006b
:104b94006e0b9000fe0b90001407980025079800f8
:104ba40036079800470798000e4890000004e0007c
:104bb400520032009100070053003700709c8000bf
:104bc400ea0f500002003e00e20007000300370035
:104bd400709c80006a005000709c8800809c80005b
:104be400ea0f500002003e00a60007000300370051
:104bf400809c80006a005000809c8800609c80003b
:104c04000000e00010003a00780047007e029000a7
:104c14008e0a90001e0b9000ae0b9000ba8d02001d
:104c2400000000004e0a9000de0a90006e0b900017
:104c3400fe0b90001407980025079800360798008b
:104c44004707980026003700be0c90007800470004
:104c5400ea00470001017800a1002000208702003b
:104c6400000000004e0a9000de0a90006e0b9000d7
:104c7400fe0b9000849cbe008694be005e029000f1
:104c8400ee029000f80447003e0890005001be0078
:104c94004000be00809fbe00829fbe000401be0093
:104ca4007e0290008e0a90001e0b9000ae0b9000c6
:104cb40009007800068f020000000000e887570012
:104cc4004e0a9000de0a90006e0b9000fe0b9000de
:104cd400140798002507980036079800470798009e
:104ce4000e4890000004e000060032006500070052
:104cf400050037000000000003003700000000003a
:104d040001003700000000001e4078000004e000ad
:104d14000c003a0039000700ae0890007800470004
:104d2400120007004e0a9000de0a90006e0b9000fd
:104d3400fe0b90001407980025079800360798008a
:104d4400470798001e029000ae0290003e039000b8
:104d5400ce039000049cbe000694be0008007800b8
:104d64004f04be000080fa00000006000a00fa00aa
:104d740000017800410798000040eb00604798006c
:104d84000040eb00404798000040eb00504798007b
:104d94006000b800008fbe00ce009000401f2000cd
:104da400808f500004003400001e2b00f1ff2f0000
:104db400008fbe000a003700ce009000c0e02f0034
:104dc400808f500004003d0000e224000100200018
:104dd400008fbe000200370010c0b30040479800a7
:104de4003e02be002e03be000499be000691be0022
:104df400020078000080fa00000006000000fa00bb
:104e040020002000aa3b0200000000001000200047
:104e1400aa3b0200000000000000eb00aa3b0200d5
:104e2400000000000000eb00509c88000000eb0034
:104e3400d09d88000080fa00000006000000fa00ff
:104e4400e09c80000000e0000400340010c0b300c7
:104e5400a83d0200000000000300370010c0b300aa
:104e6400f83d02000000000010002000509c880063
:104e7400a00020005ab40200000000000080fa00e4
:104e8400000006000000fa0010002000aa3b020007
:104e9400000000000000eb00aa3b0200000000003c
:104ea40020002000aa3b0200000000003000200087
:104eb400509c88007cae0200000000000080fa00d4
:104ec400000006000000fa0011c0b300200020001a
:104ed4003e3c02000000000010002000aa3b02003b
:104ee400000000000000eb00aa3b020000000000ec
:104ef40020002000509c88000000eb00609c88008b
:104f040002712200030020008038210001002000eb
:104f1400bcb602000000000000007800709c88000d
:104f240002a62e00030020000053270001002000e9
:104f3400bcb602000000000000007800809c8800dd
:104f4400a0002000ac8d0200000000000080fa00e8
:104f5400000006001200fa00881f78000000eb0031
:104f640050079800100020006007980010002000ef
:104f74007007980010002000000f98002000200007
:104f8400200798000000eb00000f78000000eb0001
:104f940010079800080037001e0090000000400031
:104fa4006e0040006e0078001e0f40001e0090004e
:104fb4000000e800100798009e0090002e0090006a
:104fc400808f5000f4ff3500609c80000000e000fa
:104fd400030032000000eb00609c880027003700cb
:104fe4001e00e900cf80de000001be006000b800b2
:104ff400bcb602000000000030079800410798008a
:105004000000eb00000f78000000eb001007980090
:105014000f0037001e009000000040006e004000aa
:105024006e0078001e0f40001e0078006101b90078
:105034003e009000ce009000800f5100818f5900f7
:1050440008003e001e0090000000e80010079800d1
:105054009e0090002e009000808f5000edff3500e0
:1050640001003700000000001e0090000000400016
:105074006a0040006e007800609c880082a92300ca
:10508400030020008038210001002000bcb602008b
:105094000000000000007800709c8800609c800084
:1050a4000000e00015003200e10f500014003a0047
:1050b40062002000030020004000200001002000c6
:1050c400bcb602000000000000047800024b20007f
:1050d40003002000803e200001002000bcb6020036
:1050e400000000000000780088007800d0860200ec
:1050f4000000000000000000010037000000000074
:105104004f0478000080fa00000006001000fa0046
:10511400881f78004007980051079800620798009c
:10512400730798005e009000cf80de009e1002009e
:1051340000000000b2fd2000930424009811020036
:105144000000000002002000134e24007c0f020027
:1051540000000000200798003107980018c0b30031
:1051640022a9200063f823002e009000be009000c6
:1051740022100200000000000000e00001003c00da
:105184000044eb000804e000020032000040eb00a1
:105194007300370018c0b30022a9200063f82b0065
:1051a4002e009000be0090001e10020000000000bf
:1051b4000000e000010035000044eb000804e000ba
:1051c400020032000040eb006500370018c0b30055
:1051d4006011b8002e009000be0090002210020062
:1051e400000000000000e00001003d000044eb006e
:1051f4000804e0000e00320018c0b30022a9200009
:1052040063f023002e009000be0090001e100200e8
:10521400000000000000e000010035000044eb0045
:105224000804e000020032000040eb004c003700ac
:1052340018c0b3006011b8002e009000be009000aa
:105244001e100200000000000000e0000100350014
:105254000044eb000804e0000e00320018c0b30064
:1052640022a9200063f02b002e009000be009000c5
:1052740022100200000000000000e00001003c00d9
:105284000044eb000804e000020032000040eb00a0
:1052940033003700e09d8000f19d80000001be00d6
:1052a4002e009000be009000c00e0200000000001e
:1052b400008fbe0018c0b3006011b8001e00be000d
:1052c4001e100200000000000000e0000100350094
:1052d4000044eb000804e000030032001e00be009e
:1052e40001f0a200008fbe0018c0b30052a32f002b
:1052f400e3c823001e00be002210020000000000cc
:105304000000e00001003c000044eb000804e00061
:10531400070032002e019000be019000e29d88003b
:10532400f39d88000000eb00d09d88000300370047
:10533400d09d80000000e800d09d8800d09d8000b2
:10534400ea00b90080007800f0f92000808f500056
:105354000200360010c0b300010037000040eb002b
:105364004f0478000080fa00000006002000fa00d4
:10537400889fbe00200f9800310f9800420f9800bc
:10538400530f9800640f9800750f98003e08900022
:10539400cf80de009e10020000000000325c2f006f
:1053a400c31124009811020000000000f22621001d
:1053b40033a8230098110200000000002007980081
:1053c400310798004e089000cf80de009e10020046
:1053d40000000000325c2f00c31124009811020069
:1053e40000000000f226210033a8230098110200d7
:1053f4000000000040079800510798005e089000e4
:10540400cf80de009e10020000000000325c2f00fe
:10541400c31124009811020000000000f2262100ac
:1054240033a82300981102000000000060079800d0
:10543400710798002e019000be0190002e0090008c
:10544400be00900098110200000000000004be009d
:105454004e019000de0190004e009000de009000ae
:1054640098110200000000000001be000800be0008
:10547400c20e02000000000042860200000000008c
:10548400000f9800110f98000e0990009e099000db
:105494006e009000fe0090008a840200000000006c
:1054a400008fbe0018c0b300b2fd20009304240096
:1054b4001e00be0022100200000000000000e000f8
:1054c40001003c000044eb000804e0000600320048
:1054d400b2fd2000930c24001e00be00c00e02008a
:1054e40000000000008fbe0002002000134e2400c4
:1054f4001e00be009811020000000000b2fd200052
:10550400930424007c0f0200000000002610020017
:1055140000000000000078004f04be000080fa0084
:10552400000006000a00fa00000f78001107980036
:105534002207980033079800440798001e0078005b
:105544009e00900001087800ae0090001e007800d4
:10555400110098004e009000804078001e007800f2
:10556400514098003e009000804078001e00780072
:10557400614098001e0078008040eb004140980094
:105584000080fa00000006000600fa0010079800e8
:10559400210798002e009000504090008080fb006e
:1055a4002e009000604090000080fb008088b900cd
:1055b400000f78001e009000900090001e007800fc
:1055c400808f500003003100803e200062c2020040
:1055d400000000002e009000d04090001e009000bb
:1055e400514098002e009000e04090001e00900072
:1055f400614098002e009000c04090001e00900072
:10560400414098000c0037001e0090009000780084
:105614001e0078004200dd00008140002e00900052
:10562400900078001e0078004200dd0000804000f9
:105634001000be000089be001e0fe9001e007800a5
:105644000000e000f0ff3d000080fa0000000600ca
:105654000800fa00881f78001007980021079800b6
:10566400320798001e009000504090008080fb009c
:105674001e009000604090000080fb008088b9000c
:10568400000f7800ae0090001e0090007f0307001a
:105694000004e00003003a00803e200062c20200e1
:1056a400000000003e009000900090001e00780072
:1056b400808f500003003100803e200062c202004f
:1056c400000000001e009000d04090003e009000ba
:1056d400514098001e009000e04090003e00900071
:1056e400614098001e009000c04090003e00900071
:1056f400414098001e009000c04090002e00900091
:105704004040900080cf50001c003a001600370043
:105714003e009000900078001e0078004200dd00fa
:10572400008440001e009000900078001e00780065
:105734004200dd00008040001002be002e009000f8
:10574400900078001e0078004200dd0000804000d8
:105754001000be000001be000400be00c20e020024
:1057640000000000008cbe001e0fe9001e0078003f
:105774000000e000e6ff3d0003003700803e20000b
:1057840062c20200000000004f0478000080fa00aa
:10579400000006000800fa00881f7800100798002f
:1057a40021079800320798001e0090005040900096
:1057b4008080fb001e009000604090000080fb0091
:1057c4008088b900000f7800ae0090001e009000a1
:1057d4002e0307000004e00003003a00803e20008e
:1057e40062c20200000000003e00900090009000a1
:1057f4001e007800808f500003003100803e20009e
:1058040062c20200000000001e009000d040900020
:105814003e009000514098001e009000e04090002f
:105824003e009000614098001e009000c04090002f
:105834003e009000414098001e009000c04090003f
:105844002e0090004040900080cf50001c003a0091
:10585400160037003e009000900078001e0078008b
:105864004200dd00008440001e009000900078009b
:105874001e0078004200dd00008040001002be00df
:105884002e009000900078001e0078004200dd0099
:10589400008040001000be000001be000400be00f5
:1058a400c00e020000000000008cbe001e0fe900c4
:1058b4001e0078000000e000e6ff3d000300370012
:1058c400803e200062c20200000000004f04780005
:1058d4000080fa00000006000600fa00000f7800bd
:1058e40011079800220798001e007800404090009d
:1058f4000004e0000d003a001e00780090007800db
:105904001e007800504090000081fb001e009000b3
:105914008091b9002e009000000041004200dd009b
:10592400008040001000be000c0037001e0078000c
:10593400900078001e007800604090000081fb0019
:105944002e0090008091b9001e00900000004100dc
:105954004200dd00008040001000be000080fa001c
:10596400000006000a00fa00000f780011079800f2
:105974002207980034079800450798001e00780015
:10598400404090000004e0000f003a001e00780040
:10599400900078001e007800504090000081fb00c9
:1059a4001e0090008091b9002e009000000041007c
:1059b4004200dd00008040003e019000ce019000d6
:1059c4000288be000e0037001e00780090007800a8
:1059d4001e007800604090000081fb002e009000c3
:1059e4008091b9001e009000000041004200dd00db
:1059f400008040003e019000ce0190000288be006d
:105a04000080fa00000006000a00fa00881f7800ef
:105a14001007980022079800330798004107980060
:105a24001e009000504090008080fb001e009000fb
:105a3400604090000080fb008088b900000f78006f
:105a44004e009000900090001e007800808f50005f
:105a540003003100803e200062c20200000000000a
:105a64001e009000d04090004e00900051409800dd
:105a74001e009000e04090004e00900061409800ad
:105a84001e009000c04090004e00900041409800dd
:105a9400100037004e009000900078001e0078003f
:105aa4004200dd00008440001e0090009000780059
:105ab4001e0078004200dd00008040001000be009f
:105ac4002e019000be019000981102000000000019
:105ad400008cbe001e0fe9001e0078000000e000ec
:105ae400ecff3d004f0478000080fa00000006003f
:105af4001000fa0050079800610798007207980098
:105b04007e009000900090005e0090006040900045
:105b14000081fb006e009000504090000080fb006c
:105b24008090b900808f500003003100803e200037
:105b340062c20200000000005e009000d0409000ad
:105b44006e0090006040900080cf5000030032004f
:105b5400803e200062c20200000000006e0090003f
:105b6400d04090007e009000514098005e0090006c
:105b7400e04090007e009000614098007e0090001c
:105b84008040eb00414098000000eb0020079800a3
:105b94000000eb00000f78001a0037000000eb0053
:105ba40010079800100037009e0190006e019000cd
:105bb4009e0078005e0090004802070030079800bd
:105bc400410798003e029000ce0290001e01900012
:105bd4009e0078007e00900062ff07001e00900087
:105be4000000e800100798007e00900050409000ec
:105bf4008080fb001e009000808f5000eaff3c0074
:105c04001e0fe8007e009000604090000080fb00c2
:105c14009e0f5000e1ff3c000080fa0000000600e7
:105c24000400fa00100798001e00900050409000f5
